{
  "contractName": "Vibe",
  "abi": [
    {
      "constant": true,
      "inputs": [
        {
          "internalType": "uint256",
          "name": "",
          "type": "uint256"
        },
        {
          "internalType": "uint256",
          "name": "",
          "type": "uint256"
        }
      ],
      "name": "chatroom",
      "outputs": [
        {
          "internalType": "address",
          "name": "sender",
          "type": "address"
        },
        {
          "internalType": "string",
          "name": "msg",
          "type": "string"
        }
      ],
      "payable": false,
      "stateMutability": "view",
      "type": "function"
    },
    {
      "constant": true,
      "inputs": [
        {
          "internalType": "uint256",
          "name": "",
          "type": "uint256"
        }
      ],
      "name": "classes",
      "outputs": [
        {
          "internalType": "uint256",
          "name": "id",
          "type": "uint256"
        },
        {
          "internalType": "string",
          "name": "name",
          "type": "string"
        },
        {
          "internalType": "address payable",
          "name": "teacher",
          "type": "address"
        },
        {
          "internalType": "uint256",
          "name": "price",
          "type": "uint256"
        },
        {
          "internalType": "uint256",
          "name": "rating",
          "type": "uint256"
        },
        {
          "internalType": "string",
          "name": "description",
          "type": "string"
        }
      ],
      "payable": false,
      "stateMutability": "view",
      "type": "function"
    },
    {
      "constant": true,
      "inputs": [
        {
          "internalType": "address",
          "name": "",
          "type": "address"
        },
        {
          "internalType": "uint256",
          "name": "",
          "type": "uint256"
        }
      ],
      "name": "classesStudiedBy",
      "outputs": [
        {
          "internalType": "uint256",
          "name": "",
          "type": "uint256"
        }
      ],
      "payable": false,
      "stateMutability": "view",
      "type": "function"
    },
    {
      "constant": true,
      "inputs": [
        {
          "internalType": "address",
          "name": "",
          "type": "address"
        },
        {
          "internalType": "uint256",
          "name": "",
          "type": "uint256"
        }
      ],
      "name": "classesTaughtBy",
      "outputs": [
        {
          "internalType": "uint256",
          "name": "",
          "type": "uint256"
        }
      ],
      "payable": false,
      "stateMutability": "view",
      "type": "function"
    },
    {
      "constant": true,
      "inputs": [
        {
          "internalType": "uint256",
          "name": "",
          "type": "uint256"
        },
        {
          "internalType": "uint256",
          "name": "",
          "type": "uint256"
        }
      ],
      "name": "lessons",
      "outputs": [
        {
          "internalType": "string",
          "name": "name",
          "type": "string"
        },
        {
          "internalType": "string",
          "name": "content",
          "type": "string"
        },
        {
          "internalType": "string",
          "name": "description",
          "type": "string"
        }
      ],
      "payable": false,
      "stateMutability": "view",
      "type": "function"
    },
    {
      "constant": true,
      "inputs": [
        {
          "internalType": "uint256",
          "name": "i",
          "type": "uint256"
        }
      ],
      "name": "getClass",
      "outputs": [
        {
          "components": [
            {
              "internalType": "uint256",
              "name": "id",
              "type": "uint256"
            },
            {
              "internalType": "string",
              "name": "name",
              "type": "string"
            },
            {
              "internalType": "address payable",
              "name": "teacher",
              "type": "address"
            },
            {
              "internalType": "uint256",
              "name": "price",
              "type": "uint256"
            },
            {
              "internalType": "uint256",
              "name": "rating",
              "type": "uint256"
            },
            {
              "internalType": "string",
              "name": "description",
              "type": "string"
            },
            {
              "internalType": "address[]",
              "name": "students",
              "type": "address[]"
            },
            {
              "internalType": "address[]",
              "name": "raters",
              "type": "address[]"
            }
          ],
          "internalType": "struct Vibe.Class",
          "name": "",
          "type": "tuple"
        }
      ],
      "payable": false,
      "stateMutability": "view",
      "type": "function"
    },
    {
      "constant": true,
      "inputs": [
        {
          "internalType": "uint256",
          "name": "i",
          "type": "uint256"
        },
        {
          "internalType": "uint256",
          "name": "j",
          "type": "uint256"
        }
      ],
      "name": "getLesson",
      "outputs": [
        {
          "components": [
            {
              "internalType": "string",
              "name": "name",
              "type": "string"
            },
            {
              "internalType": "string",
              "name": "content",
              "type": "string"
            },
            {
              "internalType": "string",
              "name": "description",
              "type": "string"
            }
          ],
          "internalType": "struct Vibe.Lesson",
          "name": "",
          "type": "tuple"
        }
      ],
      "payable": false,
      "stateMutability": "view",
      "type": "function"
    },
    {
      "constant": true,
      "inputs": [],
      "name": "getClassCount",
      "outputs": [
        {
          "internalType": "uint256",
          "name": "",
          "type": "uint256"
        }
      ],
      "payable": false,
      "stateMutability": "view",
      "type": "function"
    },
    {
      "constant": true,
      "inputs": [
        {
          "internalType": "uint256",
          "name": "i",
          "type": "uint256"
        }
      ],
      "name": "getLessonCount",
      "outputs": [
        {
          "internalType": "uint256",
          "name": "",
          "type": "uint256"
        }
      ],
      "payable": false,
      "stateMutability": "view",
      "type": "function"
    },
    {
      "constant": true,
      "inputs": [
        {
          "internalType": "address",
          "name": "user",
          "type": "address"
        }
      ],
      "name": "classesTaughtByCount",
      "outputs": [
        {
          "internalType": "uint256",
          "name": "",
          "type": "uint256"
        }
      ],
      "payable": false,
      "stateMutability": "view",
      "type": "function"
    },
    {
      "constant": true,
      "inputs": [
        {
          "internalType": "address",
          "name": "user",
          "type": "address"
        }
      ],
      "name": "classesStudiedByCount",
      "outputs": [
        {
          "internalType": "uint256",
          "name": "",
          "type": "uint256"
        }
      ],
      "payable": false,
      "stateMutability": "view",
      "type": "function"
    },
    {
      "constant": true,
      "inputs": [
        {
          "internalType": "address",
          "name": "user",
          "type": "address"
        },
        {
          "internalType": "uint256",
          "name": "i",
          "type": "uint256"
        }
      ],
      "name": "getClassesTaughtBy",
      "outputs": [
        {
          "internalType": "uint256",
          "name": "",
          "type": "uint256"
        }
      ],
      "payable": false,
      "stateMutability": "view",
      "type": "function"
    },
    {
      "constant": true,
      "inputs": [
        {
          "internalType": "address",
          "name": "user",
          "type": "address"
        },
        {
          "internalType": "uint256",
          "name": "i",
          "type": "uint256"
        }
      ],
      "name": "getClassesStudiedBy",
      "outputs": [
        {
          "internalType": "uint256",
          "name": "",
          "type": "uint256"
        }
      ],
      "payable": false,
      "stateMutability": "view",
      "type": "function"
    },
    {
      "constant": true,
      "inputs": [
        {
          "internalType": "uint256",
          "name": "i",
          "type": "uint256"
        },
        {
          "internalType": "uint256",
          "name": "j",
          "type": "uint256"
        }
      ],
      "name": "getChat",
      "outputs": [
        {
          "components": [
            {
              "internalType": "address",
              "name": "sender",
              "type": "address"
            },
            {
              "internalType": "string",
              "name": "msg",
              "type": "string"
            }
          ],
          "internalType": "struct Vibe.Chat",
          "name": "",
          "type": "tuple"
        }
      ],
      "payable": false,
      "stateMutability": "view",
      "type": "function"
    },
    {
      "constant": true,
      "inputs": [
        {
          "internalType": "uint256",
          "name": "i",
          "type": "uint256"
        }
      ],
      "name": "classChatCount",
      "outputs": [
        {
          "internalType": "uint256",
          "name": "",
          "type": "uint256"
        }
      ],
      "payable": false,
      "stateMutability": "view",
      "type": "function"
    },
    {
      "constant": true,
      "inputs": [
        {
          "internalType": "uint256",
          "name": "i",
          "type": "uint256"
        }
      ],
      "name": "isTeacher",
      "outputs": [
        {
          "internalType": "bool",
          "name": "",
          "type": "bool"
        }
      ],
      "payable": false,
      "stateMutability": "view",
      "type": "function"
    },
    {
      "constant": true,
      "inputs": [
        {
          "internalType": "uint256",
          "name": "i",
          "type": "uint256"
        }
      ],
      "name": "hasPurchasedClass",
      "outputs": [
        {
          "internalType": "bool",
          "name": "",
          "type": "bool"
        }
      ],
      "payable": false,
      "stateMutability": "view",
      "type": "function"
    },
    {
      "constant": true,
      "inputs": [
        {
          "internalType": "uint256",
          "name": "i",
          "type": "uint256"
        }
      ],
      "name": "hasRatedClass",
      "outputs": [
        {
          "internalType": "bool",
          "name": "",
          "type": "bool"
        }
      ],
      "payable": false,
      "stateMutability": "view",
      "type": "function"
    },
    {
      "constant": false,
      "inputs": [
        {
          "internalType": "string",
          "name": "name",
          "type": "string"
        },
        {
          "internalType": "uint256",
          "name": "price",
          "type": "uint256"
        },
        {
          "internalType": "string",
          "name": "description",
          "type": "string"
        }
      ],
      "name": "createClass",
      "outputs": [],
      "payable": false,
      "stateMutability": "nonpayable",
      "type": "function"
    },
    {
      "constant": false,
      "inputs": [
        {
          "internalType": "uint256",
          "name": "i",
          "type": "uint256"
        },
        {
          "internalType": "string",
          "name": "n",
          "type": "string"
        }
      ],
      "name": "editClassName",
      "outputs": [],
      "payable": false,
      "stateMutability": "nonpayable",
      "type": "function"
    },
    {
      "constant": false,
      "inputs": [
        {
          "internalType": "uint256",
          "name": "i",
          "type": "uint256"
        },
        {
          "internalType": "uint256",
          "name": "p",
          "type": "uint256"
        }
      ],
      "name": "editClassPrice",
      "outputs": [],
      "payable": false,
      "stateMutability": "nonpayable",
      "type": "function"
    },
    {
      "constant": false,
      "inputs": [
        {
          "internalType": "uint256",
          "name": "i",
          "type": "uint256"
        },
        {
          "internalType": "string",
          "name": "d",
          "type": "string"
        }
      ],
      "name": "editClassDescription",
      "outputs": [],
      "payable": false,
      "stateMutability": "nonpayable",
      "type": "function"
    },
    {
      "constant": false,
      "inputs": [
        {
          "internalType": "uint256",
          "name": "i",
          "type": "uint256"
        },
        {
          "internalType": "string",
          "name": "name",
          "type": "string"
        },
        {
          "internalType": "string",
          "name": "content",
          "type": "string"
        },
        {
          "internalType": "string",
          "name": "description",
          "type": "string"
        }
      ],
      "name": "addLesson",
      "outputs": [],
      "payable": false,
      "stateMutability": "nonpayable",
      "type": "function"
    },
    {
      "constant": false,
      "inputs": [
        {
          "internalType": "uint256",
          "name": "i",
          "type": "uint256"
        },
        {
          "internalType": "uint256",
          "name": "j",
          "type": "uint256"
        },
        {
          "internalType": "string",
          "name": "n",
          "type": "string"
        }
      ],
      "name": "editLessonName",
      "outputs": [],
      "payable": false,
      "stateMutability": "nonpayable",
      "type": "function"
    },
    {
      "constant": false,
      "inputs": [
        {
          "internalType": "uint256",
          "name": "i",
          "type": "uint256"
        },
        {
          "internalType": "uint256",
          "name": "j",
          "type": "uint256"
        },
        {
          "internalType": "string",
          "name": "c",
          "type": "string"
        }
      ],
      "name": "editLessonContent",
      "outputs": [],
      "payable": false,
      "stateMutability": "nonpayable",
      "type": "function"
    },
    {
      "constant": false,
      "inputs": [
        {
          "internalType": "uint256",
          "name": "i",
          "type": "uint256"
        },
        {
          "internalType": "uint256",
          "name": "j",
          "type": "uint256"
        },
        {
          "internalType": "string",
          "name": "d",
          "type": "string"
        }
      ],
      "name": "editLessonDescription",
      "outputs": [],
      "payable": false,
      "stateMutability": "nonpayable",
      "type": "function"
    },
    {
      "constant": false,
      "inputs": [
        {
          "internalType": "uint256",
          "name": "i",
          "type": "uint256"
        },
        {
          "internalType": "uint256",
          "name": "j",
          "type": "uint256"
        }
      ],
      "name": "deleteLesson",
      "outputs": [],
      "payable": false,
      "stateMutability": "nonpayable",
      "type": "function"
    },
    {
      "constant": false,
      "inputs": [
        {
          "internalType": "uint256",
          "name": "i",
          "type": "uint256"
        }
      ],
      "name": "purchaseClass",
      "outputs": [],
      "payable": true,
      "stateMutability": "payable",
      "type": "function"
    },
    {
      "constant": false,
      "inputs": [
        {
          "internalType": "uint256",
          "name": "i",
          "type": "uint256"
        },
        {
          "internalType": "uint256",
          "name": "r",
          "type": "uint256"
        }
      ],
      "name": "addRating",
      "outputs": [],
      "payable": false,
      "stateMutability": "nonpayable",
      "type": "function"
    },
    {
      "constant": false,
      "inputs": [
        {
          "internalType": "uint256",
          "name": "i",
          "type": "uint256"
        },
        {
          "internalType": "string",
          "name": "m",
          "type": "string"
        }
      ],
      "name": "chat",
      "outputs": [],
      "payable": true,
      "stateMutability": "payable",
      "type": "function"
    }
  ],
  "bytecode": "0x608060405234801561001057600080fd5b50612f40806100206000396000f3fe6080604052600436106101cd5760003560e01c806371be527e116100f7578063a1051dfe11610095578063c5815d0111610064578063c5815d0114610702578063db963ee11461073f578063ecacc1841461077e578063f15a16df146107a7576101cd565b8063a1051dfe1461064a578063a747099014610673578063b144da721461069c578063c37b288a146106d9576101cd565b8063817dbe9f116100d1578063817dbe9f1461057257806382ebd2d5146105b457806384ecf9f9146105f15780638aca655c1461060d576101cd565b806371be527e146104e357806372a70a881461050c57806375b6b94d14610535576101cd565b806346b361a81161016f5780635fb116521161013e5780635fb11652146104175780636760576a146104405780636c4b96bd146104695780636d977d36146104a6576101cd565b806346b361a814610358578063512d62df146103745780635e41c82e146103b15780635f4c1d19146103da576101cd565b80632cc8b283116101ab5780632cc8b28314610277578063420014ab146102b45780634520de68146102dd578063469b960c1461031b576101cd565b80630b01ca3b146101d257806310e9aa67146101fd57806328aaba871461023a575b600080fd5b3480156101de57600080fd5b506101e76107e4565b6040516101f49190612cd9565b60405180910390f35b34801561020957600080fd5b50610224600480360361021f9190810190612760565b6107f0565b6040516102319190612c0c565b60405180910390f35b34801561024657600080fd5b50610261600480360361025c919081019061267c565b6108d8565b60405161026e9190612cd9565b60405180910390f35b34801561028357600080fd5b5061029e60048036036102999190810190612888565b610924565b6040516102ab9190612cb7565b60405180910390f35b3480156102c057600080fd5b506102db60048036036102d691908101906127dd565b610b79565b005b3480156102e957600080fd5b5061030460048036036102ff9190810190612888565b610c78565b604051610312929190612bdc565b60405180910390f35b34801561032757600080fd5b50610342600480360361033d9190810190612760565b610d77565b60405161034f9190612cd9565b60405180910390f35b610372600480360361036d9190810190612789565b610daa565b005b34801561038057600080fd5b5061039b60048036036103969190810190612760565b610eb7565b6040516103a89190612c95565b60405180910390f35b3480156103bd57600080fd5b506103d860048036036103d391908101906128c4565b6111c1565b005b3480156103e657600080fd5b5061040160048036036103fc91908101906126a5565b611267565b60405161040e9190612cd9565b60405180910390f35b34801561042357600080fd5b5061043e600480360361043991908101906128c4565b6112d8565b005b34801561044c57600080fd5b5061046760048036036104629190810190612888565b611367565b005b34801561047557600080fd5b50610490600480360361048b9190810190612888565b61146e565b60405161049d9190612c73565b60405180910390f35b3480156104b257600080fd5b506104cd60048036036104c891908101906126a5565b6115e4565b6040516104da9190612cd9565b60405180910390f35b3480156104ef57600080fd5b5061050a600480360361050591908101906126e1565b611612565b005b34801561051857600080fd5b50610533600480360361052e91908101906128c4565b611880565b005b34801561054157600080fd5b5061055c600480360361055791908101906126a5565b611927565b6040516105699190612cd9565b60405180910390f35b34801561057e57600080fd5b5061059960048036036105949190810190612760565b611955565b6040516105ab96959493929190612cf4565b60405180910390f35b3480156105c057600080fd5b506105db60048036036105d69190810190612760565b611aee565b6040516105e89190612cd9565b60405180910390f35b61060b60048036036106069190810190612760565b611b21565b005b34801561061957600080fd5b50610634600480360361062f91908101906126a5565b611cea565b6040516106419190612cd9565b60405180910390f35b34801561065657600080fd5b50610671600480360361066c9190810190612888565b611d5b565b005b34801561067f57600080fd5b5061069a60048036036106959190810190612789565b611e04565b005b3480156106a857600080fd5b506106c360048036036106be9190810190612760565b611e70565b6040516106d09190612c0c565b60405180910390f35b3480156106e557600080fd5b5061070060048036036106fb9190810190612888565b611f58565b005b34801561070e57600080fd5b506107296004803603610724919081019061267c565b611fb5565b6040516107369190612cd9565b60405180910390f35b34801561074b57600080fd5b5061076660048036036107619190810190612888565b612001565b60405161077593929190612c27565b60405180910390f35b34801561078a57600080fd5b506107a560048036036107a09190810190612789565b612216565b005b3480156107b357600080fd5b506107ce60048036036107c99190810190612760565b612283565b6040516107db9190612c0c565b60405180910390f35b60008080549050905090565b6000808054905082111561080057fe5b60008090505b6000838154811061081357fe5b9060005260206000209060080201600701805490508110156108cd573373ffffffffffffffffffffffffffffffffffffffff166000848154811061085357fe5b9060005260206000209060080201600701828154811061086f57fe5b9060005260206000200160009054906101000a900473ffffffffffffffffffffffffffffffffffffffff1673ffffffffffffffffffffffffffffffffffffffff1614156108c05760019150506108d3565b8080600101915050610806565b50600090505b919050565b6000600460008373ffffffffffffffffffffffffffffffffffffffff1673ffffffffffffffffffffffffffffffffffffffff168152602001908152602001600020805490509050919050565b61092c612318565b6001838154811061093957fe5b906000526020600020018054905083111561095057fe5b6001838154811061095d57fe5b90600052602060002001828154811061097257fe5b9060005260206000209060030201604051806060016040529081600082018054600181600116156101000203166002900480601f016020809104026020016040519081016040528092919081815260200182805460018160011615610100020316600290048015610a245780601f106109f957610100808354040283529160200191610a24565b820191906000526020600020905b815481529060010190602001808311610a0757829003601f168201915b50505050508152602001600182018054600181600116156101000203166002900480601f016020809104026020016040519081016040528092919081815260200182805460018160011615610100020316600290048015610ac65780601f10610a9b57610100808354040283529160200191610ac6565b820191906000526020600020905b815481529060010190602001808311610aa957829003601f168201915b50505050508152602001600282018054600181600116156101000203166002900480601f016020809104026020016040519081016040528092919081815260200182805460018160011615610100020316600290048015610b685780601f10610b3d57610100808354040283529160200191610b68565b820191906000526020600020905b815481529060010190602001808311610b4b57829003601f168201915b505050505081525050905092915050565b600080549050841115610b8857fe5b6000835111610b9357fe5b601483511115610b9f57fe5b614e2081511115610bac57fe5b610bb584612283565b610bbb57fe5b60018481548110610bc857fe5b90600052602060002001604051806060016040528085815260200184815260200183815250908060018154018082558091505090600182039060005260206000209060030201600090919290919091506000820151816000019080519060200190610c34929190612339565b506020820151816001019080519060200190610c51929190612339565b506040820151816002019080519060200190610c6e929190612339565b5050505050505050565b60028281548110610c8557fe5b906000526020600020018181548110610c9a57fe5b9060005260206000209060020201600091509150508060000160009054906101000a900473ffffffffffffffffffffffffffffffffffffffff1690806001018054600181600116156101000203166002900480601f016020809104026020016040519081016040528092919081815260200182805460018160011615610100020316600290048015610d6d5780601f10610d4257610100808354040283529160200191610d6d565b820191906000526020600020905b815481529060010190602001808311610d5057829003601f168201915b5050505050905082565b6000600180549050821115610d8857fe5b60018281548110610d9557fe5b90600052602060002001805490509050919050565b600080549050821115610db957fe5b610dc282611e70565b610dc857fe5b6000815111610dd357fe5b60c881511115610ddf57fe5b60028281548110610dec57fe5b9060005260206000200160405180604001604052803373ffffffffffffffffffffffffffffffffffffffff168152602001838152509080600181540180825580915050906001820390600052602060002090600202016000909192909190915060008201518160000160006101000a81548173ffffffffffffffffffffffffffffffffffffffff021916908373ffffffffffffffffffffffffffffffffffffffff1602179055506020820151816001019080519060200190610eaf929190612339565b505050505050565b610ebf6123b9565b60008281548110610ecc57fe5b90600052602060002090600802016040518061010001604052908160008201548152602001600182018054600181600116156101000203166002900480601f016020809104026020016040519081016040528092919081815260200182805460018160011615610100020316600290048015610f895780601f10610f5e57610100808354040283529160200191610f89565b820191906000526020600020905b815481529060010190602001808311610f6c57829003601f168201915b505050505081526020016002820160009054906101000a900473ffffffffffffffffffffffffffffffffffffffff1673ffffffffffffffffffffffffffffffffffffffff1673ffffffffffffffffffffffffffffffffffffffff1681526020016003820154815260200160048201548152602001600582018054600181600116156101000203166002900480601f0160208091040260200160405190810160405280929190818152602001828054600181600116156101000203166002900480156110955780601f1061106a57610100808354040283529160200191611095565b820191906000526020600020905b81548152906001019060200180831161107857829003601f168201915b505050505081526020016006820180548060200260200160405190810160405280929190818152602001828054801561112357602002820191906000526020600020905b8160009054906101000a900473ffffffffffffffffffffffffffffffffffffffff1673ffffffffffffffffffffffffffffffffffffffff16815260200190600101908083116110d9575b50505050508152602001600782018054806020026020016040519081016040528092919081815260200182805480156111b157602002820191906000526020600020905b8160009054906101000a900473ffffffffffffffffffffffffffffffffffffffff1673ffffffffffffffffffffffffffffffffffffffff1681526020019060010190808311611167575b5050505050815250509050919050565b6000805490508311156111d057fe5b600183815481106111dd57fe5b90600052602060002001805490508211156111f457fe5b60008151116111ff57fe5b60148151111561120b57fe5b61121483612283565b61121a57fe5b806001848154811061122857fe5b90600052602060002001838154811061123d57fe5b90600052602060002090600302016000019080519060200190611261929190612414565b50505050565b600061127283611fb5565b82111561127b57fe5b600360008473ffffffffffffffffffffffffffffffffffffffff1673ffffffffffffffffffffffffffffffffffffffff16815260200190815260200160002082815481106112c557fe5b9060005260206000200154905092915050565b6000805490508311156112e757fe5b600183815481106112f457fe5b906000526020600020018054905082111561130b57fe5b61131483612283565b61131a57fe5b806001848154811061132857fe5b90600052602060002001838154811061133d57fe5b90600052602060002090600302016001019080519060200190611361929190612414565b50505050565b60008054905082111561137657fe5b61137f82611e70565b61138557fe5b61138e826107f0565b1561139557fe5b60058211156113a057fe5b6001600083815481106113af57fe5b90600052602060002090600802016007018054905082816113cc57fe5b04600084815481106113da57fe5b9060005260206000209050505050600082815481106113f557fe5b90600052602060002090600802016007013390806001815401808255809150509060018203906000526020600020016000909192909190916101000a81548173ffffffffffffffffffffffffffffffffffffffff021916908373ffffffffffffffffffffffffffffffffffffffff160217905550505050565b611476612494565b60028054905083111561148557fe5b6002838154811061149257fe5b90600052602060002001805490508211156114a957fe5b600283815481106114b657fe5b9060005260206000200182815481106114cb57fe5b90600052602060002090600202016040518060400160405290816000820160009054906101000a900473ffffffffffffffffffffffffffffffffffffffff1673ffffffffffffffffffffffffffffffffffffffff1673ffffffffffffffffffffffffffffffffffffffff168152602001600182018054600181600116156101000203166002900480601f0160208091040260200160405190810160405280929190818152602001828054600181600116156101000203166002900480156115d35780601f106115a8576101008083540402835291602001916115d3565b820191906000526020600020905b8154815290600101906020018083116115b657829003601f168201915b505050505081525050905092915050565b600460205281600052604060002081815481106115fd57fe5b90600052602060002001600091509150505481565b600083511161161d57fe5b60148351111561162957fe5b600082101561163457fe5b620f424082111561164157fe5b6107d08151111561164e57fe5b600060405180610100016040528060008054905081526020018581526020013373ffffffffffffffffffffffffffffffffffffffff1681526020018481526020016000815260200183815260200160006040519080825280602002602001820160405280156116cc5781602001602082028038833980820191505090505b50815260200160006040519080825280602002602001820160405280156117025781602001602082028038833980820191505090505b5081525090806001815401808255809150509060018203906000526020600020906008020160009091929091909150600082015181600001556020820151816001019080519060200190611757929190612339565b5060408201518160020160006101000a81548173ffffffffffffffffffffffffffffffffffffffff021916908373ffffffffffffffffffffffffffffffffffffffff160217905550606082015181600301556080820151816004015560a08201518160050190805190602001906117cf929190612339565b5060c08201518160060190805190602001906117ec9291906124c4565b5060e08201518160070190805190602001906118099291906124c4565b50505050600360003373ffffffffffffffffffffffffffffffffffffffff1673ffffffffffffffffffffffffffffffffffffffff1681526020019081526020016000206000805490509080600181540180825580915050906001820390600052602060002001600090919290919091505550505050565b60008054905083111561188f57fe5b6001838154811061189c57fe5b90600052602060002001805490508211156118b357fe5b60008151116118be57fe5b614e20815111156118cb57fe5b6118d483612283565b6118da57fe5b80600184815481106118e857fe5b9060005260206000200183815481106118fd57fe5b90600052602060002090600302016002019080519060200190611921929190612414565b50505050565b6003602052816000526040600020818154811061194057fe5b90600052602060002001600091509150505481565b6000818154811061196257fe5b9060005260206000209060080201600091509050806000015490806001018054600181600116156101000203166002900480601f016020809104026020016040519081016040528092919081815260200182805460018160011615610100020316600290048015611a145780601f106119e957610100808354040283529160200191611a14565b820191906000526020600020905b8154815290600101906020018083116119f757829003601f168201915b5050505050908060020160009054906101000a900473ffffffffffffffffffffffffffffffffffffffff1690806003015490806004015490806005018054600181600116156101000203166002900480601f016020809104026020016040519081016040528092919081815260200182805460018160011615610100020316600290048015611ae45780601f10611ab957610100808354040283529160200191611ae4565b820191906000526020600020905b815481529060010190602001808311611ac757829003601f168201915b5050505050905086565b6000600280549050821115611aff57fe5b60028281548110611b0c57fe5b90600052602060002001805490509050919050565b600080549050811115611b3057fe5b611b3981612283565b15611b4057fe5b611b4981611e70565b15611b5057fe5b60008181548110611b5d57fe5b9060005260206000209060080201600301543414611b7757fe5b60008181548110611b8457fe5b906000526020600020906008020160020160009054906101000a900473ffffffffffffffffffffffffffffffffffffffff1673ffffffffffffffffffffffffffffffffffffffff166108fc349081150290604051600060405180830381858888f19350505050158015611bfb573d6000803e3d6000fd5b5060008181548110611c0957fe5b90600052602060002090600802016006013390806001815401808255809150509060018203906000526020600020016000909192909190916101000a81548173ffffffffffffffffffffffffffffffffffffffff021916908373ffffffffffffffffffffffffffffffffffffffff16021790555050600460003373ffffffffffffffffffffffffffffffffffffffff1673ffffffffffffffffffffffffffffffffffffffff16815260200190815260200160002081908060018154018082558091505090600182039060005260206000200160009091929091909150555050565b6000611cf5836108d8565b821115611cfe57fe5b600460008473ffffffffffffffffffffffffffffffffffffffff1673ffffffffffffffffffffffffffffffffffffffff1681526020019081526020016000208281548110611d4857fe5b9060005260206000200154905092915050565b600080549050821115611d6a57fe5b60018281548110611d7757fe5b9060005260206000200180549050811115611d8e57fe5b611d9782612283565b611d9d57fe5b60018281548110611daa57fe5b906000526020600020018181548110611dbf57fe5b906000526020600020906003020160008082016000611dde919061254e565b600182016000611dee919061254e565b600282016000611dfe919061254e565b50505050565b600080549050821115611e1357fe5b6000815111611e1e57fe5b601481511115611e2a57fe5b611e3382612283565b611e3957fe5b8060008381548110611e4757fe5b90600052602060002090600802016001019080519060200190611e6b929190612414565b505050565b60008080549050821115611e8057fe5b60008090505b60008381548110611e9357fe5b906000526020600020906008020160060180549050811015611f4d573373ffffffffffffffffffffffffffffffffffffffff1660008481548110611ed357fe5b90600052602060002090600802016006018281548110611eef57fe5b9060005260206000200160009054906101000a900473ffffffffffffffffffffffffffffffffffffffff1673ffffffffffffffffffffffffffffffffffffffff161415611f40576001915050611f53565b8080600101915050611e86565b50600090505b919050565b600080549050821115611f6757fe5b6000811015611f7257fe5b620f4240811115611f7f57fe5b611f8882612283565b611f8e57fe5b8060008381548110611f9c57fe5b9060005260206000209060080201600301819055505050565b6000600360008373ffffffffffffffffffffffffffffffffffffffff1673ffffffffffffffffffffffffffffffffffffffff168152602001908152602001600020805490509050919050565b6001828154811061200e57fe5b90600052602060002001818154811061202357fe5b906000526020600020906003020160009150915050806000018054600181600116156101000203166002900480601f0160208091040260200160405190810160405280929190818152602001828054600181600116156101000203166002900480156120d05780601f106120a5576101008083540402835291602001916120d0565b820191906000526020600020905b8154815290600101906020018083116120b357829003601f168201915b505050505090806001018054600181600116156101000203166002900480601f01602080910402602001604051908101604052809291908181526020018280546001816001161561010002031660029004801561216e5780601f106121435761010080835404028352916020019161216e565b820191906000526020600020905b81548152906001019060200180831161215157829003601f168201915b505050505090806002018054600181600116156101000203166002900480601f01602080910402602001604051908101604052809291908181526020018280546001816001161561010002031660029004801561220c5780601f106121e15761010080835404028352916020019161220c565b820191906000526020600020905b8154815290600101906020018083116121ef57829003601f168201915b5050505050905083565b60008054905082111561222557fe5b600081511161223057fe5b6107d08151111561223d57fe5b61224682612283565b61224c57fe5b806000838154811061225a57fe5b9060005260206000209060080201600501908051906020019061227e929190612414565b505050565b6000808054905082111561229357fe5b3373ffffffffffffffffffffffffffffffffffffffff16600083815481106122b757fe5b906000526020600020906008020160020160009054906101000a900473ffffffffffffffffffffffffffffffffffffffff1673ffffffffffffffffffffffffffffffffffffffff16141561230e5760019050612313565b600090505b919050565b60405180606001604052806060815260200160608152602001606081525090565b828054600181600116156101000203166002900490600052602060002090601f016020900481019282601f1061237a57805160ff19168380011785556123a8565b828001600101855582156123a8579182015b828111156123a757825182559160200191906001019061238c565b5b5090506123b59190612596565b5090565b6040518061010001604052806000815260200160608152602001600073ffffffffffffffffffffffffffffffffffffffff16815260200160008152602001600081526020016060815260200160608152602001606081525090565b828054600181600116156101000203166002900490600052602060002090601f016020900481019282601f1061245557805160ff1916838001178555612483565b82800160010185558215612483579182015b82811115612482578251825591602001919060010190612467565b5b5090506124909190612596565b5090565b6040518060400160405280600073ffffffffffffffffffffffffffffffffffffffff168152602001606081525090565b82805482825590600052602060002090810192821561253d579160200282015b8281111561253c5782518260006101000a81548173ffffffffffffffffffffffffffffffffffffffff021916908373ffffffffffffffffffffffffffffffffffffffff160217905550916020019190600101906124e4565b5b50905061254a91906125bb565b5090565b50805460018160011615610100020316600290046000825580601f106125745750612593565b601f0160209004906000526020600020908101906125929190612596565b5b50565b6125b891905b808211156125b457600081600090555060010161259c565b5090565b90565b6125fb91905b808211156125f757600081816101000a81549073ffffffffffffffffffffffffffffffffffffffff0219169055506001016125c1565b5090565b90565b60008135905061260d81612ecf565b92915050565b600082601f83011261262457600080fd5b813561263761263282612d90565b612d63565b9150808252602083016020830185838301111561265357600080fd5b61265e838284612e7c565b50505092915050565b60008135905061267681612ee6565b92915050565b60006020828403121561268e57600080fd5b600061269c848285016125fe565b91505092915050565b600080604083850312156126b857600080fd5b60006126c6858286016125fe565b92505060206126d785828601612667565b9150509250929050565b6000806000606084860312156126f657600080fd5b600084013567ffffffffffffffff81111561271057600080fd5b61271c86828701612613565b935050602061272d86828701612667565b925050604084013567ffffffffffffffff81111561274a57600080fd5b61275686828701612613565b9150509250925092565b60006020828403121561277257600080fd5b600061278084828501612667565b91505092915050565b6000806040838503121561279c57600080fd5b60006127aa85828601612667565b925050602083013567ffffffffffffffff8111156127c757600080fd5b6127d385828601612613565b9150509250929050565b600080600080608085870312156127f357600080fd5b600061280187828801612667565b945050602085013567ffffffffffffffff81111561281e57600080fd5b61282a87828801612613565b935050604085013567ffffffffffffffff81111561284757600080fd5b61285387828801612613565b925050606085013567ffffffffffffffff81111561287057600080fd5b61287c87828801612613565b91505092959194509250565b6000806040838503121561289b57600080fd5b60006128a985828601612667565b92505060206128ba85828601612667565b9150509250929050565b6000806000606084860312156128d957600080fd5b60006128e786828701612667565b93505060206128f886828701612667565b925050604084013567ffffffffffffffff81111561291557600080fd5b61292186828701612613565b9150509250925092565b60006129378383612961565b60208301905092915050565b61294c81612e34565b82525050565b61295b81612e34565b82525050565b61296a81612e22565b82525050565b61297981612e22565b82525050565b600061298a82612dcc565b6129948185612def565b935061299f83612dbc565b8060005b838110156129d05781516129b7888261292b565b97506129c283612de2565b9250506001810190506129a3565b5085935050505092915050565b6129e681612e46565b82525050565b60006129f782612dd7565b612a018185612e00565b9350612a11818560208601612e8b565b612a1a81612ebe565b840191505092915050565b6000612a3082612dd7565b612a3a8185612e11565b9350612a4a818560208601612e8b565b612a5381612ebe565b840191505092915050565b6000604083016000830151612a766000860182612961565b5060208301518482036020860152612a8e82826129ec565b9150508091505092915050565b600061010083016000830151612ab46000860182612bbe565b5060208301518482036020860152612acc82826129ec565b9150506040830151612ae16040860182612943565b506060830151612af46060860182612bbe565b506080830151612b076080860182612bbe565b5060a083015184820360a0860152612b1f82826129ec565b91505060c083015184820360c0860152612b39828261297f565b91505060e083015184820360e0860152612b53828261297f565b9150508091505092915050565b60006060830160008301518482036000860152612b7d82826129ec565b91505060208301518482036020860152612b9782826129ec565b91505060408301518482036040860152612bb182826129ec565b9150508091505092915050565b612bc781612e72565b82525050565b612bd681612e72565b82525050565b6000604082019050612bf16000830185612970565b8181036020830152612c038184612a25565b90509392505050565b6000602082019050612c2160008301846129dd565b92915050565b60006060820190508181036000830152612c418186612a25565b90508181036020830152612c558185612a25565b90508181036040830152612c698184612a25565b9050949350505050565b60006020820190508181036000830152612c8d8184612a5e565b905092915050565b60006020820190508181036000830152612caf8184612a9b565b905092915050565b60006020820190508181036000830152612cd18184612b60565b905092915050565b6000602082019050612cee6000830184612bcd565b92915050565b600060c082019050612d096000830189612bcd565b8181036020830152612d1b8188612a25565b9050612d2a6040830187612952565b612d376060830186612bcd565b612d446080830185612bcd565b81810360a0830152612d568184612a25565b9050979650505050505050565b6000604051905081810181811067ffffffffffffffff82111715612d8657600080fd5b8060405250919050565b600067ffffffffffffffff821115612da757600080fd5b601f19601f8301169050602081019050919050565b6000819050602082019050919050565b600081519050919050565b600081519050919050565b6000602082019050919050565b600082825260208201905092915050565b600082825260208201905092915050565b600082825260208201905092915050565b6000612e2d82612e52565b9050919050565b6000612e3f82612e52565b9050919050565b60008115159050919050565b600073ffffffffffffffffffffffffffffffffffffffff82169050919050565b6000819050919050565b82818337600083830152505050565b60005b83811015612ea9578082015181840152602081019050612e8e565b83811115612eb8576000848401525b50505050565b6000601f19601f8301169050919050565b612ed881612e22565b8114612ee357600080fd5b50565b612eef81612e72565b8114612efa57600080fd5b5056fea365627a7a72315820b8414b4d829dc594b4f0580adc1020dca37f65a582bc472084827e7da5b555106c6578706572696d656e74616cf564736f6c63430005100040",
  "source": "//Project: Vibe\r\n//Author: Team Vibe\r\n//Date: March 5, 2021\r\n\r\npragma solidity >=0.4.22 <0.8.0;\r\npragma experimental ABIEncoderV2;\r\n\r\ncontract Vibe {\r\n\r\n  struct Class {\r\n    uint256 id;\r\n    string name;\r\n    address payable teacher;\r\n    uint256 price;\r\n    uint256 rating;\r\n    string description;\r\n    address[] students;\r\n    address[] raters;\r\n  }\r\n\r\n  struct Lesson {\r\n    string name;\r\n    string content;\r\n    string description;\r\n  }\r\n\r\n  struct Chat {\r\n    address sender;\r\n    string msg;\r\n  }\r\n\r\n    Class[] public classes;\r\n    Lesson[][] public lessons;\r\n    Chat[][] public chatroom;\r\n\r\n    mapping(address => uint256[]) public classesTaughtBy;\r\n    mapping(address => uint256[]) public classesStudiedBy;\r\n\r\n\r\n\r\n\r\n    function getClass(uint256 i) public view returns (Class memory) {\r\n        return classes[i];\r\n    }\r\n\r\n    function getLesson(uint256 i, uint256 j) public view returns (Lesson memory) {\r\n      assert(i <= lessons[i].length);\r\n\r\n        return lessons[i][j];\r\n    }\r\n\r\n    function getClassCount() public view returns (uint256) {\r\n        return classes.length;\r\n    }\r\n\r\n    function getLessonCount(uint256 i) public view returns (uint256) {\r\n      assert(i <= lessons.length);\r\n\r\n        return lessons[i].length;\r\n    }\r\n\r\n    function classesTaughtByCount(address user) public view returns (uint256) {\r\n        return classesTaughtBy[user].length;\r\n    }\r\n\r\n    function classesStudiedByCount(address user) public view returns (uint256) {\r\n        return classesStudiedBy[user].length;\r\n    }\r\n\r\n    function getClassesTaughtBy(address user, uint256 i) public view returns (uint256) {\r\n      assert(i <= classesTaughtByCount(user));\r\n\r\n        return classesTaughtBy[user][i];\r\n    }\r\n\r\n    function getClassesStudiedBy(address user, uint256 i) public view returns (uint256) {\r\n      assert(i <= classesStudiedByCount(user));\r\n\r\n        return classesStudiedBy[user][i];\r\n    }\r\n\r\n    function getChat(uint256 i, uint256 j) public view returns (Chat memory) {\r\n      assert(i <= chatroom.length);\r\n      assert(j <= chatroom[i].length);\r\n\r\n      return chatroom[i][j];\r\n    }\r\n\r\n    function classChatCount(uint256 i) public view returns (uint256) {\r\n      assert(i <= chatroom.length);\r\n\r\n      return chatroom[i].length;\r\n    }\r\n\r\n    function isTeacher(uint256 i) public view returns (bool) {\r\n      assert(i <= classes.length);\r\n\r\n      if (classes[i].teacher == msg.sender) {\r\n        return true;\r\n      } else {\r\n        return false;\r\n      }\r\n    }\r\n\r\n    function hasPurchasedClass(uint256 i) public view returns (bool) {\r\n      assert(i <= classes.length);\r\n\r\n      for (uint256 j = 0; j < classes[i].students.length; j++) {\r\n        if (classes[i].students[j] == msg.sender) {\r\n          return true;\r\n        }\r\n      }\r\n      return false;\r\n    }\r\n\r\n    function hasRatedClass(uint256 i) public view returns (bool) {\r\n      assert(i <= classes.length);\r\n\r\n      for (uint256 j = 0; j < classes[i].raters.length; j++) {\r\n        if (classes[i].raters[j] == msg.sender) {\r\n          return true;\r\n        }\r\n      }\r\n      return false;\r\n    }\r\n\r\n\r\n\r\n\r\n    function createClass(string memory name, uint256 price, string memory description) public {\r\n      assert(bytes(name).length > 0);\r\n      assert(bytes(name).length <= 20);\r\n      assert(price >= 0);\r\n      assert(price <= 1000000);\r\n      assert(bytes(description).length <= 2000);\r\n\r\n      classes.push(Class(classes.length, name, msg.sender, price, 0, description, new address[](0), new address[](0)));\r\n      classesTaughtBy[msg.sender].push(classes.length);\r\n    }\r\n\r\n    function editClassName(uint256 i, string memory n) public {\r\n      assert(i <= classes.length);\r\n      assert(bytes(n).length > 0);\r\n      assert(bytes(n).length <= 20);\r\n      assert(isTeacher(i));\r\n\r\n      classes[i].name = n;\r\n    }\r\n\r\n    function editClassPrice(uint256 i, uint256 p) public {\r\n      assert(i <= classes.length);\r\n      assert(p >= 0);\r\n      assert(p <= 1000000);\r\n      assert(isTeacher(i));\r\n\r\n      classes[i].price = p;\r\n    }\r\n\r\n    function editClassDescription(uint256 i, string memory d) public {\r\n      assert(i <= classes.length);\r\n      assert(bytes(d).length > 0);\r\n      assert(bytes(d).length <= 2000);\r\n      assert(isTeacher(i));\r\n\r\n      classes[i].description = d;\r\n    }\r\n\r\n    function addLesson(uint256 i, string memory name, string memory content, string memory description)  public {\r\n      assert(i <= classes.length);\r\n      assert(bytes(name).length > 0);\r\n      assert(bytes(name).length <= 20);\r\n      assert(bytes(description).length <= 20000);\r\n      assert(isTeacher(i));\r\n\r\n      lessons[i].push(Lesson(name, content, description));\r\n    }\r\n\r\n    function editLessonName(uint256 i, uint256 j, string memory n) public {\r\n      assert(i <= classes.length);\r\n      assert(j <= lessons[i].length);\r\n      assert(bytes(n).length > 0);\r\n      assert(bytes(n).length <= 20);\r\n      assert(isTeacher(i));\r\n\r\n      lessons[i][j].name = n;\r\n    }\r\n\r\n    function editLessonContent(uint256 i, uint256 j, string memory c) public {\r\n      assert(i <= classes.length);\r\n      assert(j <= lessons[i].length);\r\n      assert(isTeacher(i));\r\n\r\n      lessons[i][j].content = c;\r\n    }\r\n\r\n    function editLessonDescription(uint256 i, uint256 j, string memory d) public {\r\n      assert(i <= classes.length);\r\n      assert(j <= lessons[i].length);\r\n      assert(bytes(d).length > 0);\r\n      assert(bytes(d).length <= 20000);\r\n      assert(isTeacher(i));\r\n\r\n      lessons[i][j].description = d;\r\n    }\r\n\r\n    function deleteLesson(uint256 i, uint256 j) public {\r\n      assert(i <= classes.length);\r\n      assert(j <= lessons[i].length);\r\n      assert(isTeacher(i));\r\n\r\n      delete lessons[i][j];\r\n    }\r\n\r\n    function purchaseClass(uint256 i) public payable {\r\n      assert(i <= classes.length);\r\n      assert(!isTeacher(i));\r\n      assert(!hasPurchasedClass(i));\r\n      assert(msg.value == classes[i].price);\r\n\r\n      classes[i].teacher.transfer(msg.value);\r\n\r\n      classes[i].students.push(msg.sender);\r\n      classesStudiedBy[msg.sender].push(i);\r\n    }\r\n\r\n    function addRating(uint256 i, uint256 r) public {\r\n      assert(i <= classes.length);\r\n      assert(hasPurchasedClass(i));\r\n      assert(!hasRatedClass(i));\r\n      assert(i <= 5);\r\n\r\n      classes[i].rating + r/classes[i].raters.length + 1;\r\n      classes[i].raters.push(msg.sender);\r\n    }\r\n\r\n    function chat(uint256 i, string memory m) public payable {\r\n      assert(i <= classes.length);\r\n      assert(hasPurchasedClass(i));\r\n      assert(bytes(m).length > 0);\r\n      assert(bytes(m).length <= 200);\r\n\r\n      chatroom[i].push(Chat(msg.sender, m));\r\n    }\r\n  }\r\n",
  "sourcePath": "C:/Users/sabri/OneDrive/Documents/Vibe/contracts/Vibe.sol",
  "compiler": {
    "name": "solc",
    "version": "0.5.16+commit.9c3226ce.Emscripten.clang"
  },
  "schemaVersion": "3.2.4",
  "updatedAt": "2021-03-07T03:22:15.095Z",
  "networkType": "ethereum",
  "devdoc": {
    "methods": {}
  },
  "userdoc": {
    "methods": {}
  }
}