{
  "contractName": "Vibe",
  "abi": [
    {
      "constant": true,
      "inputs": [
        {
          "internalType": "uint256",
          "name": "",
          "type": "uint256"
        },
        {
          "internalType": "uint256",
          "name": "",
          "type": "uint256"
        }
      ],
      "name": "chatroom",
      "outputs": [
        {
          "internalType": "address",
          "name": "sender",
          "type": "address"
        },
        {
          "internalType": "string",
          "name": "msg",
          "type": "string"
        }
      ],
      "payable": false,
      "stateMutability": "view",
      "type": "function"
    },
    {
      "constant": true,
      "inputs": [
        {
          "internalType": "uint256",
          "name": "",
          "type": "uint256"
        }
      ],
      "name": "classes",
      "outputs": [
        {
          "internalType": "uint256",
          "name": "id",
          "type": "uint256"
        },
        {
          "internalType": "string",
          "name": "name",
          "type": "string"
        },
        {
          "internalType": "address payable",
          "name": "teacher",
          "type": "address"
        },
        {
          "internalType": "uint256",
          "name": "price",
          "type": "uint256"
        },
        {
          "internalType": "uint256",
          "name": "rating",
          "type": "uint256"
        },
        {
          "internalType": "string",
          "name": "description",
          "type": "string"
        }
      ],
      "payable": false,
      "stateMutability": "view",
      "type": "function"
    },
    {
      "constant": true,
      "inputs": [
        {
          "internalType": "address",
          "name": "",
          "type": "address"
        },
        {
          "internalType": "uint256",
          "name": "",
          "type": "uint256"
        }
      ],
      "name": "classesStudiedBy",
      "outputs": [
        {
          "internalType": "uint256",
          "name": "",
          "type": "uint256"
        }
      ],
      "payable": false,
      "stateMutability": "view",
      "type": "function"
    },
    {
      "constant": true,
      "inputs": [
        {
          "internalType": "address",
          "name": "",
          "type": "address"
        },
        {
          "internalType": "uint256",
          "name": "",
          "type": "uint256"
        }
      ],
      "name": "classesTaughtBy",
      "outputs": [
        {
          "internalType": "uint256",
          "name": "",
          "type": "uint256"
        }
      ],
      "payable": false,
      "stateMutability": "view",
      "type": "function"
    },
    {
      "constant": true,
      "inputs": [
        {
          "internalType": "uint256",
          "name": "",
          "type": "uint256"
        },
        {
          "internalType": "uint256",
          "name": "",
          "type": "uint256"
        }
      ],
      "name": "lessons",
      "outputs": [
        {
          "internalType": "string",
          "name": "name",
          "type": "string"
        },
        {
          "internalType": "string",
          "name": "content",
          "type": "string"
        },
        {
          "internalType": "string",
          "name": "description",
          "type": "string"
        }
      ],
      "payable": false,
      "stateMutability": "view",
      "type": "function"
    },
    {
      "constant": true,
      "inputs": [
        {
          "internalType": "uint256",
          "name": "i",
          "type": "uint256"
        }
      ],
      "name": "getClass",
      "outputs": [
        {
          "components": [
            {
              "internalType": "uint256",
              "name": "id",
              "type": "uint256"
            },
            {
              "internalType": "string",
              "name": "name",
              "type": "string"
            },
            {
              "internalType": "address payable",
              "name": "teacher",
              "type": "address"
            },
            {
              "internalType": "uint256",
              "name": "price",
              "type": "uint256"
            },
            {
              "internalType": "uint256",
              "name": "rating",
              "type": "uint256"
            },
            {
              "internalType": "string",
              "name": "description",
              "type": "string"
            },
            {
              "internalType": "address[]",
              "name": "students",
              "type": "address[]"
            },
            {
              "internalType": "address[]",
              "name": "raters",
              "type": "address[]"
            }
          ],
          "internalType": "struct Vibe.Class",
          "name": "",
          "type": "tuple"
        }
      ],
      "payable": false,
      "stateMutability": "view",
      "type": "function"
    },
    {
      "constant": true,
      "inputs": [
        {
          "internalType": "uint256",
          "name": "i",
          "type": "uint256"
        },
        {
          "internalType": "uint256",
          "name": "j",
          "type": "uint256"
        }
      ],
      "name": "getLesson",
      "outputs": [
        {
          "components": [
            {
              "internalType": "string",
              "name": "name",
              "type": "string"
            },
            {
              "internalType": "string",
              "name": "content",
              "type": "string"
            },
            {
              "internalType": "string",
              "name": "description",
              "type": "string"
            }
          ],
          "internalType": "struct Vibe.Lesson",
          "name": "",
          "type": "tuple"
        }
      ],
      "payable": false,
      "stateMutability": "view",
      "type": "function"
    },
    {
      "constant": true,
      "inputs": [],
      "name": "getClassCount",
      "outputs": [
        {
          "internalType": "uint256",
          "name": "",
          "type": "uint256"
        }
      ],
      "payable": false,
      "stateMutability": "view",
      "type": "function"
    },
    {
      "constant": true,
      "inputs": [
        {
          "internalType": "uint256",
          "name": "i",
          "type": "uint256"
        }
      ],
      "name": "getLessonCount",
      "outputs": [
        {
          "internalType": "uint256",
          "name": "",
          "type": "uint256"
        }
      ],
      "payable": false,
      "stateMutability": "view",
      "type": "function"
    },
    {
      "constant": true,
      "inputs": [
        {
          "internalType": "address",
          "name": "user",
          "type": "address"
        }
      ],
      "name": "classesTaughtByCount",
      "outputs": [
        {
          "internalType": "uint256",
          "name": "",
          "type": "uint256"
        }
      ],
      "payable": false,
      "stateMutability": "view",
      "type": "function"
    },
    {
      "constant": true,
      "inputs": [
        {
          "internalType": "address",
          "name": "user",
          "type": "address"
        }
      ],
      "name": "classesStudiedByCount",
      "outputs": [
        {
          "internalType": "uint256",
          "name": "",
          "type": "uint256"
        }
      ],
      "payable": false,
      "stateMutability": "view",
      "type": "function"
    },
    {
      "constant": true,
      "inputs": [
        {
          "internalType": "address",
          "name": "user",
          "type": "address"
        },
        {
          "internalType": "uint256",
          "name": "i",
          "type": "uint256"
        }
      ],
      "name": "getClassesTaughtBy",
      "outputs": [
        {
          "internalType": "uint256",
          "name": "",
          "type": "uint256"
        }
      ],
      "payable": false,
      "stateMutability": "view",
      "type": "function"
    },
    {
      "constant": true,
      "inputs": [
        {
          "internalType": "address",
          "name": "user",
          "type": "address"
        },
        {
          "internalType": "uint256",
          "name": "i",
          "type": "uint256"
        }
      ],
      "name": "getClassesStudiedBy",
      "outputs": [
        {
          "internalType": "uint256",
          "name": "",
          "type": "uint256"
        }
      ],
      "payable": false,
      "stateMutability": "view",
      "type": "function"
    },
    {
      "constant": true,
      "inputs": [
        {
          "internalType": "uint256",
          "name": "i",
          "type": "uint256"
        },
        {
          "internalType": "uint256",
          "name": "j",
          "type": "uint256"
        }
      ],
      "name": "getChat",
      "outputs": [
        {
          "components": [
            {
              "internalType": "address",
              "name": "sender",
              "type": "address"
            },
            {
              "internalType": "string",
              "name": "msg",
              "type": "string"
            }
          ],
          "internalType": "struct Vibe.Chat",
          "name": "",
          "type": "tuple"
        }
      ],
      "payable": false,
      "stateMutability": "view",
      "type": "function"
    },
    {
      "constant": true,
      "inputs": [
        {
          "internalType": "uint256",
          "name": "i",
          "type": "uint256"
        }
      ],
      "name": "classChatCount",
      "outputs": [
        {
          "internalType": "uint256",
          "name": "",
          "type": "uint256"
        }
      ],
      "payable": false,
      "stateMutability": "view",
      "type": "function"
    },
    {
      "constant": true,
      "inputs": [
        {
          "internalType": "uint256",
          "name": "i",
          "type": "uint256"
        }
      ],
      "name": "isTeacher",
      "outputs": [
        {
          "internalType": "bool",
          "name": "",
          "type": "bool"
        }
      ],
      "payable": false,
      "stateMutability": "view",
      "type": "function"
    },
    {
      "constant": true,
      "inputs": [
        {
          "internalType": "uint256",
          "name": "i",
          "type": "uint256"
        }
      ],
      "name": "hasPurchasedClass",
      "outputs": [
        {
          "internalType": "bool",
          "name": "",
          "type": "bool"
        }
      ],
      "payable": false,
      "stateMutability": "view",
      "type": "function"
    },
    {
      "constant": true,
      "inputs": [
        {
          "internalType": "uint256",
          "name": "i",
          "type": "uint256"
        }
      ],
      "name": "hasRatedClass",
      "outputs": [
        {
          "internalType": "bool",
          "name": "",
          "type": "bool"
        }
      ],
      "payable": false,
      "stateMutability": "view",
      "type": "function"
    },
    {
      "constant": false,
      "inputs": [
        {
          "internalType": "string",
          "name": "name",
          "type": "string"
        },
        {
          "internalType": "uint256",
          "name": "price",
          "type": "uint256"
        },
        {
          "internalType": "string",
          "name": "description",
          "type": "string"
        }
      ],
      "name": "createClass",
      "outputs": [],
      "payable": false,
      "stateMutability": "nonpayable",
      "type": "function"
    },
    {
      "constant": false,
      "inputs": [
        {
          "internalType": "uint256",
          "name": "i",
          "type": "uint256"
        },
        {
          "internalType": "string",
          "name": "n",
          "type": "string"
        }
      ],
      "name": "editClassName",
      "outputs": [],
      "payable": false,
      "stateMutability": "nonpayable",
      "type": "function"
    },
    {
      "constant": false,
      "inputs": [
        {
          "internalType": "uint256",
          "name": "i",
          "type": "uint256"
        },
        {
          "internalType": "uint256",
          "name": "p",
          "type": "uint256"
        }
      ],
      "name": "editClassPrice",
      "outputs": [],
      "payable": false,
      "stateMutability": "nonpayable",
      "type": "function"
    },
    {
      "constant": false,
      "inputs": [
        {
          "internalType": "uint256",
          "name": "i",
          "type": "uint256"
        },
        {
          "internalType": "string",
          "name": "d",
          "type": "string"
        }
      ],
      "name": "editClassDescription",
      "outputs": [],
      "payable": false,
      "stateMutability": "nonpayable",
      "type": "function"
    },
    {
      "constant": false,
      "inputs": [
        {
          "internalType": "uint256",
          "name": "i",
          "type": "uint256"
        },
        {
          "internalType": "string",
          "name": "name",
          "type": "string"
        },
        {
          "internalType": "string",
          "name": "content",
          "type": "string"
        },
        {
          "internalType": "string",
          "name": "description",
          "type": "string"
        }
      ],
      "name": "addLesson",
      "outputs": [],
      "payable": false,
      "stateMutability": "nonpayable",
      "type": "function"
    },
    {
      "constant": false,
      "inputs": [
        {
          "internalType": "uint256",
          "name": "i",
          "type": "uint256"
        },
        {
          "internalType": "uint256",
          "name": "j",
          "type": "uint256"
        },
        {
          "internalType": "string",
          "name": "n",
          "type": "string"
        }
      ],
      "name": "editLessonName",
      "outputs": [],
      "payable": false,
      "stateMutability": "nonpayable",
      "type": "function"
    },
    {
      "constant": false,
      "inputs": [
        {
          "internalType": "uint256",
          "name": "i",
          "type": "uint256"
        },
        {
          "internalType": "uint256",
          "name": "j",
          "type": "uint256"
        },
        {
          "internalType": "string",
          "name": "c",
          "type": "string"
        }
      ],
      "name": "editLessonContent",
      "outputs": [],
      "payable": false,
      "stateMutability": "nonpayable",
      "type": "function"
    },
    {
      "constant": false,
      "inputs": [
        {
          "internalType": "uint256",
          "name": "i",
          "type": "uint256"
        },
        {
          "internalType": "uint256",
          "name": "j",
          "type": "uint256"
        },
        {
          "internalType": "string",
          "name": "d",
          "type": "string"
        }
      ],
      "name": "editLessonDescription",
      "outputs": [],
      "payable": false,
      "stateMutability": "nonpayable",
      "type": "function"
    },
    {
      "constant": false,
      "inputs": [
        {
          "internalType": "uint256",
          "name": "i",
          "type": "uint256"
        },
        {
          "internalType": "uint256",
          "name": "j",
          "type": "uint256"
        }
      ],
      "name": "deleteLesson",
      "outputs": [],
      "payable": false,
      "stateMutability": "nonpayable",
      "type": "function"
    },
    {
      "constant": false,
      "inputs": [
        {
          "internalType": "uint256",
          "name": "i",
          "type": "uint256"
        }
      ],
      "name": "purchaseClass",
      "outputs": [],
      "payable": true,
      "stateMutability": "payable",
      "type": "function"
    },
    {
      "constant": false,
      "inputs": [
        {
          "internalType": "uint256",
          "name": "i",
          "type": "uint256"
        },
        {
          "internalType": "uint256",
          "name": "r",
          "type": "uint256"
        }
      ],
      "name": "addRating",
      "outputs": [],
      "payable": false,
      "stateMutability": "nonpayable",
      "type": "function"
    },
    {
      "constant": false,
      "inputs": [
        {
          "internalType": "uint256",
          "name": "i",
          "type": "uint256"
        },
        {
          "internalType": "string",
          "name": "m",
          "type": "string"
        }
      ],
      "name": "chat",
      "outputs": [],
      "payable": true,
      "stateMutability": "payable",
      "type": "function"
    }
  ],
  "bytecode": "0x608060405234801561001057600080fd5b50612f4f806100206000396000f3fe6080604052600436106101cd5760003560e01c806371be527e116100f7578063a1051dfe11610095578063c5815d0111610064578063c5815d0114610702578063db963ee11461073f578063ecacc1841461077e578063f15a16df146107a7576101cd565b8063a1051dfe1461064a578063a747099014610673578063b144da721461069c578063c37b288a146106d9576101cd565b8063817dbe9f116100d1578063817dbe9f1461057257806382ebd2d5146105b457806384ecf9f9146105f15780638aca655c1461060d576101cd565b806371be527e146104e357806372a70a881461050c57806375b6b94d14610535576101cd565b806346b361a81161016f5780635fb116521161013e5780635fb11652146104175780636760576a146104405780636c4b96bd146104695780636d977d36146104a6576101cd565b806346b361a814610358578063512d62df146103745780635e41c82e146103b15780635f4c1d19146103da576101cd565b80632cc8b283116101ab5780632cc8b28314610277578063420014ab146102b45780634520de68146102dd578063469b960c1461031b576101cd565b80630b01ca3b146101d257806310e9aa67146101fd57806328aaba871461023a575b600080fd5b3480156101de57600080fd5b506101e76107e4565b6040516101f49190612ce8565b60405180910390f35b34801561020957600080fd5b50610224600480360361021f919081019061276f565b6107f0565b6040516102319190612c1b565b60405180910390f35b34801561024657600080fd5b50610261600480360361025c919081019061268b565b6108d8565b60405161026e9190612ce8565b60405180910390f35b34801561028357600080fd5b5061029e60048036036102999190810190612897565b610924565b6040516102ab9190612cc6565b60405180910390f35b3480156102c057600080fd5b506102db60048036036102d691908101906127ec565b610b79565b005b3480156102e957600080fd5b5061030460048036036102ff9190810190612897565b610c78565b604051610312929190612beb565b60405180910390f35b34801561032757600080fd5b50610342600480360361033d919081019061276f565b610d77565b60405161034f9190612ce8565b60405180910390f35b610372600480360361036d9190810190612798565b610daa565b005b34801561038057600080fd5b5061039b6004803603610396919081019061276f565b610eb7565b6040516103a89190612ca4565b60405180910390f35b3480156103bd57600080fd5b506103d860048036036103d391908101906128d3565b6111d0565b005b3480156103e657600080fd5b5061040160048036036103fc91908101906126b4565b611276565b60405161040e9190612ce8565b60405180910390f35b34801561042357600080fd5b5061043e600480360361043991908101906128d3565b6112e7565b005b34801561044c57600080fd5b5061046760048036036104629190810190612897565b611376565b005b34801561047557600080fd5b50610490600480360361048b9190810190612897565b61147d565b60405161049d9190612c82565b60405180910390f35b3480156104b257600080fd5b506104cd60048036036104c891908101906126b4565b6115f3565b6040516104da9190612ce8565b60405180910390f35b3480156104ef57600080fd5b5061050a600480360361050591908101906126f0565b611621565b005b34801561051857600080fd5b50610533600480360361052e91908101906128d3565b61188f565b005b34801561054157600080fd5b5061055c600480360361055791908101906126b4565b611936565b6040516105699190612ce8565b60405180910390f35b34801561057e57600080fd5b506105996004803603610594919081019061276f565b611964565b6040516105ab96959493929190612d03565b60405180910390f35b3480156105c057600080fd5b506105db60048036036105d6919081019061276f565b611afd565b6040516105e89190612ce8565b60405180910390f35b61060b6004803603610606919081019061276f565b611b30565b005b34801561061957600080fd5b50610634600480360361062f91908101906126b4565b611cf9565b6040516106419190612ce8565b60405180910390f35b34801561065657600080fd5b50610671600480360361066c9190810190612897565b611d6a565b005b34801561067f57600080fd5b5061069a60048036036106959190810190612798565b611e13565b005b3480156106a857600080fd5b506106c360048036036106be919081019061276f565b611e7f565b6040516106d09190612c1b565b60405180910390f35b3480156106e557600080fd5b5061070060048036036106fb9190810190612897565b611f67565b005b34801561070e57600080fd5b506107296004803603610724919081019061268b565b611fc4565b6040516107369190612ce8565b60405180910390f35b34801561074b57600080fd5b5061076660048036036107619190810190612897565b612010565b60405161077593929190612c36565b60405180910390f35b34801561078a57600080fd5b506107a560048036036107a09190810190612798565b612225565b005b3480156107b357600080fd5b506107ce60048036036107c9919081019061276f565b612292565b6040516107db9190612c1b565b60405180910390f35b60008080549050905090565b6000808054905082111561080057fe5b60008090505b6000838154811061081357fe5b9060005260206000209060080201600701805490508110156108cd573373ffffffffffffffffffffffffffffffffffffffff166000848154811061085357fe5b9060005260206000209060080201600701828154811061086f57fe5b9060005260206000200160009054906101000a900473ffffffffffffffffffffffffffffffffffffffff1673ffffffffffffffffffffffffffffffffffffffff1614156108c05760019150506108d3565b8080600101915050610806565b50600090505b919050565b6000600460008373ffffffffffffffffffffffffffffffffffffffff1673ffffffffffffffffffffffffffffffffffffffff168152602001908152602001600020805490509050919050565b61092c612327565b6001838154811061093957fe5b906000526020600020018054905083111561095057fe5b6001838154811061095d57fe5b90600052602060002001828154811061097257fe5b9060005260206000209060030201604051806060016040529081600082018054600181600116156101000203166002900480601f016020809104026020016040519081016040528092919081815260200182805460018160011615610100020316600290048015610a245780601f106109f957610100808354040283529160200191610a24565b820191906000526020600020905b815481529060010190602001808311610a0757829003601f168201915b50505050508152602001600182018054600181600116156101000203166002900480601f016020809104026020016040519081016040528092919081815260200182805460018160011615610100020316600290048015610ac65780601f10610a9b57610100808354040283529160200191610ac6565b820191906000526020600020905b815481529060010190602001808311610aa957829003601f168201915b50505050508152602001600282018054600181600116156101000203166002900480601f016020809104026020016040519081016040528092919081815260200182805460018160011615610100020316600290048015610b685780601f10610b3d57610100808354040283529160200191610b68565b820191906000526020600020905b815481529060010190602001808311610b4b57829003601f168201915b505050505081525050905092915050565b600080549050841115610b8857fe5b6000835111610b9357fe5b601483511115610b9f57fe5b614e2081511115610bac57fe5b610bb584612292565b610bbb57fe5b60018481548110610bc857fe5b90600052602060002001604051806060016040528085815260200184815260200183815250908060018154018082558091505090600182039060005260206000209060030201600090919290919091506000820151816000019080519060200190610c34929190612348565b506020820151816001019080519060200190610c51929190612348565b506040820151816002019080519060200190610c6e929190612348565b5050505050505050565b60028281548110610c8557fe5b906000526020600020018181548110610c9a57fe5b9060005260206000209060020201600091509150508060000160009054906101000a900473ffffffffffffffffffffffffffffffffffffffff1690806001018054600181600116156101000203166002900480601f016020809104026020016040519081016040528092919081815260200182805460018160011615610100020316600290048015610d6d5780601f10610d4257610100808354040283529160200191610d6d565b820191906000526020600020905b815481529060010190602001808311610d5057829003601f168201915b5050505050905082565b6000600180549050821115610d8857fe5b60018281548110610d9557fe5b90600052602060002001805490509050919050565b600080549050821115610db957fe5b610dc282611e7f565b610dc857fe5b6000815111610dd357fe5b60c881511115610ddf57fe5b60028281548110610dec57fe5b9060005260206000200160405180604001604052803373ffffffffffffffffffffffffffffffffffffffff168152602001838152509080600181540180825580915050906001820390600052602060002090600202016000909192909190915060008201518160000160006101000a81548173ffffffffffffffffffffffffffffffffffffffff021916908373ffffffffffffffffffffffffffffffffffffffff1602179055506020820151816001019080519060200190610eaf929190612348565b505050505050565b610ebf6123c8565b600080549050821115610ece57fe5b60008281548110610edb57fe5b90600052602060002090600802016040518061010001604052908160008201548152602001600182018054600181600116156101000203166002900480601f016020809104026020016040519081016040528092919081815260200182805460018160011615610100020316600290048015610f985780601f10610f6d57610100808354040283529160200191610f98565b820191906000526020600020905b815481529060010190602001808311610f7b57829003601f168201915b505050505081526020016002820160009054906101000a900473ffffffffffffffffffffffffffffffffffffffff1673ffffffffffffffffffffffffffffffffffffffff1673ffffffffffffffffffffffffffffffffffffffff1681526020016003820154815260200160048201548152602001600582018054600181600116156101000203166002900480601f0160208091040260200160405190810160405280929190818152602001828054600181600116156101000203166002900480156110a45780601f10611079576101008083540402835291602001916110a4565b820191906000526020600020905b81548152906001019060200180831161108757829003601f168201915b505050505081526020016006820180548060200260200160405190810160405280929190818152602001828054801561113257602002820191906000526020600020905b8160009054906101000a900473ffffffffffffffffffffffffffffffffffffffff1673ffffffffffffffffffffffffffffffffffffffff16815260200190600101908083116110e8575b50505050508152602001600782018054806020026020016040519081016040528092919081815260200182805480156111c057602002820191906000526020600020905b8160009054906101000a900473ffffffffffffffffffffffffffffffffffffffff1673ffffffffffffffffffffffffffffffffffffffff1681526020019060010190808311611176575b5050505050815250509050919050565b6000805490508311156111df57fe5b600183815481106111ec57fe5b906000526020600020018054905082111561120357fe5b600081511161120e57fe5b60148151111561121a57fe5b61122383612292565b61122957fe5b806001848154811061123757fe5b90600052602060002001838154811061124c57fe5b90600052602060002090600302016000019080519060200190611270929190612423565b50505050565b600061128183611fc4565b82111561128a57fe5b600360008473ffffffffffffffffffffffffffffffffffffffff1673ffffffffffffffffffffffffffffffffffffffff16815260200190815260200160002082815481106112d457fe5b9060005260206000200154905092915050565b6000805490508311156112f657fe5b6001838154811061130357fe5b906000526020600020018054905082111561131a57fe5b61132383612292565b61132957fe5b806001848154811061133757fe5b90600052602060002001838154811061134c57fe5b90600052602060002090600302016001019080519060200190611370929190612423565b50505050565b60008054905082111561138557fe5b61138e82611e7f565b61139457fe5b61139d826107f0565b156113a457fe5b60058211156113af57fe5b6001600083815481106113be57fe5b90600052602060002090600802016007018054905082816113db57fe5b04600084815481106113e957fe5b90600052602060002090505050506000828154811061140457fe5b90600052602060002090600802016007013390806001815401808255809150509060018203906000526020600020016000909192909190916101000a81548173ffffffffffffffffffffffffffffffffffffffff021916908373ffffffffffffffffffffffffffffffffffffffff160217905550505050565b6114856124a3565b60028054905083111561149457fe5b600283815481106114a157fe5b90600052602060002001805490508211156114b857fe5b600283815481106114c557fe5b9060005260206000200182815481106114da57fe5b90600052602060002090600202016040518060400160405290816000820160009054906101000a900473ffffffffffffffffffffffffffffffffffffffff1673ffffffffffffffffffffffffffffffffffffffff1673ffffffffffffffffffffffffffffffffffffffff168152602001600182018054600181600116156101000203166002900480601f0160208091040260200160405190810160405280929190818152602001828054600181600116156101000203166002900480156115e25780601f106115b7576101008083540402835291602001916115e2565b820191906000526020600020905b8154815290600101906020018083116115c557829003601f168201915b505050505081525050905092915050565b6004602052816000526040600020818154811061160c57fe5b90600052602060002001600091509150505481565b600083511161162c57fe5b60148351111561163857fe5b600082101561164357fe5b620f424082111561165057fe5b6107d08151111561165d57fe5b600060405180610100016040528060008054905081526020018581526020013373ffffffffffffffffffffffffffffffffffffffff1681526020018481526020016000815260200183815260200160006040519080825280602002602001820160405280156116db5781602001602082028038833980820191505090505b50815260200160006040519080825280602002602001820160405280156117115781602001602082028038833980820191505090505b5081525090806001815401808255809150509060018203906000526020600020906008020160009091929091909150600082015181600001556020820151816001019080519060200190611766929190612348565b5060408201518160020160006101000a81548173ffffffffffffffffffffffffffffffffffffffff021916908373ffffffffffffffffffffffffffffffffffffffff160217905550606082015181600301556080820151816004015560a08201518160050190805190602001906117de929190612348565b5060c08201518160060190805190602001906117fb9291906124d3565b5060e08201518160070190805190602001906118189291906124d3565b50505050600360003373ffffffffffffffffffffffffffffffffffffffff1673ffffffffffffffffffffffffffffffffffffffff1681526020019081526020016000206000805490509080600181540180825580915050906001820390600052602060002001600090919290919091505550505050565b60008054905083111561189e57fe5b600183815481106118ab57fe5b90600052602060002001805490508211156118c257fe5b60008151116118cd57fe5b614e20815111156118da57fe5b6118e383612292565b6118e957fe5b80600184815481106118f757fe5b90600052602060002001838154811061190c57fe5b90600052602060002090600302016002019080519060200190611930929190612423565b50505050565b6003602052816000526040600020818154811061194f57fe5b90600052602060002001600091509150505481565b6000818154811061197157fe5b9060005260206000209060080201600091509050806000015490806001018054600181600116156101000203166002900480601f016020809104026020016040519081016040528092919081815260200182805460018160011615610100020316600290048015611a235780601f106119f857610100808354040283529160200191611a23565b820191906000526020600020905b815481529060010190602001808311611a0657829003601f168201915b5050505050908060020160009054906101000a900473ffffffffffffffffffffffffffffffffffffffff1690806003015490806004015490806005018054600181600116156101000203166002900480601f016020809104026020016040519081016040528092919081815260200182805460018160011615610100020316600290048015611af35780601f10611ac857610100808354040283529160200191611af3565b820191906000526020600020905b815481529060010190602001808311611ad657829003601f168201915b5050505050905086565b6000600280549050821115611b0e57fe5b60028281548110611b1b57fe5b90600052602060002001805490509050919050565b600080549050811115611b3f57fe5b611b4881612292565b15611b4f57fe5b611b5881611e7f565b15611b5f57fe5b60008181548110611b6c57fe5b9060005260206000209060080201600301543414611b8657fe5b60008181548110611b9357fe5b906000526020600020906008020160020160009054906101000a900473ffffffffffffffffffffffffffffffffffffffff1673ffffffffffffffffffffffffffffffffffffffff166108fc349081150290604051600060405180830381858888f19350505050158015611c0a573d6000803e3d6000fd5b5060008181548110611c1857fe5b90600052602060002090600802016006013390806001815401808255809150509060018203906000526020600020016000909192909190916101000a81548173ffffffffffffffffffffffffffffffffffffffff021916908373ffffffffffffffffffffffffffffffffffffffff16021790555050600460003373ffffffffffffffffffffffffffffffffffffffff1673ffffffffffffffffffffffffffffffffffffffff16815260200190815260200160002081908060018154018082558091505090600182039060005260206000200160009091929091909150555050565b6000611d04836108d8565b821115611d0d57fe5b600460008473ffffffffffffffffffffffffffffffffffffffff1673ffffffffffffffffffffffffffffffffffffffff1681526020019081526020016000208281548110611d5757fe5b9060005260206000200154905092915050565b600080549050821115611d7957fe5b60018281548110611d8657fe5b9060005260206000200180549050811115611d9d57fe5b611da682612292565b611dac57fe5b60018281548110611db957fe5b906000526020600020018181548110611dce57fe5b906000526020600020906003020160008082016000611ded919061255d565b600182016000611dfd919061255d565b600282016000611e0d919061255d565b50505050565b600080549050821115611e2257fe5b6000815111611e2d57fe5b601481511115611e3957fe5b611e4282612292565b611e4857fe5b8060008381548110611e5657fe5b90600052602060002090600802016001019080519060200190611e7a929190612423565b505050565b60008080549050821115611e8f57fe5b60008090505b60008381548110611ea257fe5b906000526020600020906008020160060180549050811015611f5c573373ffffffffffffffffffffffffffffffffffffffff1660008481548110611ee257fe5b90600052602060002090600802016006018281548110611efe57fe5b9060005260206000200160009054906101000a900473ffffffffffffffffffffffffffffffffffffffff1673ffffffffffffffffffffffffffffffffffffffff161415611f4f576001915050611f62565b8080600101915050611e95565b50600090505b919050565b600080549050821115611f7657fe5b6000811015611f8157fe5b620f4240811115611f8e57fe5b611f9782612292565b611f9d57fe5b8060008381548110611fab57fe5b9060005260206000209060080201600301819055505050565b6000600360008373ffffffffffffffffffffffffffffffffffffffff1673ffffffffffffffffffffffffffffffffffffffff168152602001908152602001600020805490509050919050565b6001828154811061201d57fe5b90600052602060002001818154811061203257fe5b906000526020600020906003020160009150915050806000018054600181600116156101000203166002900480601f0160208091040260200160405190810160405280929190818152602001828054600181600116156101000203166002900480156120df5780601f106120b4576101008083540402835291602001916120df565b820191906000526020600020905b8154815290600101906020018083116120c257829003601f168201915b505050505090806001018054600181600116156101000203166002900480601f01602080910402602001604051908101604052809291908181526020018280546001816001161561010002031660029004801561217d5780601f106121525761010080835404028352916020019161217d565b820191906000526020600020905b81548152906001019060200180831161216057829003601f168201915b505050505090806002018054600181600116156101000203166002900480601f01602080910402602001604051908101604052809291908181526020018280546001816001161561010002031660029004801561221b5780601f106121f05761010080835404028352916020019161221b565b820191906000526020600020905b8154815290600101906020018083116121fe57829003601f168201915b5050505050905083565b60008054905082111561223457fe5b600081511161223f57fe5b6107d08151111561224c57fe5b61225582612292565b61225b57fe5b806000838154811061226957fe5b9060005260206000209060080201600501908051906020019061228d929190612423565b505050565b600080805490508211156122a257fe5b3373ffffffffffffffffffffffffffffffffffffffff16600083815481106122c657fe5b906000526020600020906008020160020160009054906101000a900473ffffffffffffffffffffffffffffffffffffffff1673ffffffffffffffffffffffffffffffffffffffff16141561231d5760019050612322565b600090505b919050565b60405180606001604052806060815260200160608152602001606081525090565b828054600181600116156101000203166002900490600052602060002090601f016020900481019282601f1061238957805160ff19168380011785556123b7565b828001600101855582156123b7579182015b828111156123b657825182559160200191906001019061239b565b5b5090506123c491906125a5565b5090565b6040518061010001604052806000815260200160608152602001600073ffffffffffffffffffffffffffffffffffffffff16815260200160008152602001600081526020016060815260200160608152602001606081525090565b828054600181600116156101000203166002900490600052602060002090601f016020900481019282601f1061246457805160ff1916838001178555612492565b82800160010185558215612492579182015b82811115612491578251825591602001919060010190612476565b5b50905061249f91906125a5565b5090565b6040518060400160405280600073ffffffffffffffffffffffffffffffffffffffff168152602001606081525090565b82805482825590600052602060002090810192821561254c579160200282015b8281111561254b5782518260006101000a81548173ffffffffffffffffffffffffffffffffffffffff021916908373ffffffffffffffffffffffffffffffffffffffff160217905550916020019190600101906124f3565b5b50905061255991906125ca565b5090565b50805460018160011615610100020316600290046000825580601f1061258357506125a2565b601f0160209004906000526020600020908101906125a191906125a5565b5b50565b6125c791905b808211156125c35760008160009055506001016125ab565b5090565b90565b61260a91905b8082111561260657600081816101000a81549073ffffffffffffffffffffffffffffffffffffffff0219169055506001016125d0565b5090565b90565b60008135905061261c81612ede565b92915050565b600082601f83011261263357600080fd5b813561264661264182612d9f565b612d72565b9150808252602083016020830185838301111561266257600080fd5b61266d838284612e8b565b50505092915050565b60008135905061268581612ef5565b92915050565b60006020828403121561269d57600080fd5b60006126ab8482850161260d565b91505092915050565b600080604083850312156126c757600080fd5b60006126d58582860161260d565b92505060206126e685828601612676565b9150509250929050565b60008060006060848603121561270557600080fd5b600084013567ffffffffffffffff81111561271f57600080fd5b61272b86828701612622565b935050602061273c86828701612676565b925050604084013567ffffffffffffffff81111561275957600080fd5b61276586828701612622565b9150509250925092565b60006020828403121561278157600080fd5b600061278f84828501612676565b91505092915050565b600080604083850312156127ab57600080fd5b60006127b985828601612676565b925050602083013567ffffffffffffffff8111156127d657600080fd5b6127e285828601612622565b9150509250929050565b6000806000806080858703121561280257600080fd5b600061281087828801612676565b945050602085013567ffffffffffffffff81111561282d57600080fd5b61283987828801612622565b935050604085013567ffffffffffffffff81111561285657600080fd5b61286287828801612622565b925050606085013567ffffffffffffffff81111561287f57600080fd5b61288b87828801612622565b91505092959194509250565b600080604083850312156128aa57600080fd5b60006128b885828601612676565b92505060206128c985828601612676565b9150509250929050565b6000806000606084860312156128e857600080fd5b60006128f686828701612676565b935050602061290786828701612676565b925050604084013567ffffffffffffffff81111561292457600080fd5b61293086828701612622565b9150509250925092565b60006129468383612970565b60208301905092915050565b61295b81612e43565b82525050565b61296a81612e43565b82525050565b61297981612e31565b82525050565b61298881612e31565b82525050565b600061299982612ddb565b6129a38185612dfe565b93506129ae83612dcb565b8060005b838110156129df5781516129c6888261293a565b97506129d183612df1565b9250506001810190506129b2565b5085935050505092915050565b6129f581612e55565b82525050565b6000612a0682612de6565b612a108185612e0f565b9350612a20818560208601612e9a565b612a2981612ecd565b840191505092915050565b6000612a3f82612de6565b612a498185612e20565b9350612a59818560208601612e9a565b612a6281612ecd565b840191505092915050565b6000604083016000830151612a856000860182612970565b5060208301518482036020860152612a9d82826129fb565b9150508091505092915050565b600061010083016000830151612ac36000860182612bcd565b5060208301518482036020860152612adb82826129fb565b9150506040830151612af06040860182612952565b506060830151612b036060860182612bcd565b506080830151612b166080860182612bcd565b5060a083015184820360a0860152612b2e82826129fb565b91505060c083015184820360c0860152612b48828261298e565b91505060e083015184820360e0860152612b62828261298e565b9150508091505092915050565b60006060830160008301518482036000860152612b8c82826129fb565b91505060208301518482036020860152612ba682826129fb565b91505060408301518482036040860152612bc082826129fb565b9150508091505092915050565b612bd681612e81565b82525050565b612be581612e81565b82525050565b6000604082019050612c00600083018561297f565b8181036020830152612c128184612a34565b90509392505050565b6000602082019050612c3060008301846129ec565b92915050565b60006060820190508181036000830152612c508186612a34565b90508181036020830152612c648185612a34565b90508181036040830152612c788184612a34565b9050949350505050565b60006020820190508181036000830152612c9c8184612a6d565b905092915050565b60006020820190508181036000830152612cbe8184612aaa565b905092915050565b60006020820190508181036000830152612ce08184612b6f565b905092915050565b6000602082019050612cfd6000830184612bdc565b92915050565b600060c082019050612d186000830189612bdc565b8181036020830152612d2a8188612a34565b9050612d396040830187612961565b612d466060830186612bdc565b612d536080830185612bdc565b81810360a0830152612d658184612a34565b9050979650505050505050565b6000604051905081810181811067ffffffffffffffff82111715612d9557600080fd5b8060405250919050565b600067ffffffffffffffff821115612db657600080fd5b601f19601f8301169050602081019050919050565b6000819050602082019050919050565b600081519050919050565b600081519050919050565b6000602082019050919050565b600082825260208201905092915050565b600082825260208201905092915050565b600082825260208201905092915050565b6000612e3c82612e61565b9050919050565b6000612e4e82612e61565b9050919050565b60008115159050919050565b600073ffffffffffffffffffffffffffffffffffffffff82169050919050565b6000819050919050565b82818337600083830152505050565b60005b83811015612eb8578082015181840152602081019050612e9d565b83811115612ec7576000848401525b50505050565b6000601f19601f8301169050919050565b612ee781612e31565b8114612ef257600080fd5b50565b612efe81612e81565b8114612f0957600080fd5b5056fea365627a7a7231582062e33bdc52ecb1116a0b8f3e9827258525a06588b8372b875b46fd0efd7f73f36c6578706572696d656e74616cf564736f6c63430005100040",
  "source": "//Project: Vibe\r\n//Author: Team Vibe\r\n//Date: March 5, 2021\r\n\r\npragma solidity >=0.4.22 <0.8.0;\r\npragma experimental ABIEncoderV2;\r\n\r\ncontract Vibe {\r\n\r\n  struct Class {\r\n    uint256 id;\r\n    string name;\r\n    address payable teacher;\r\n    uint256 price;\r\n    uint256 rating;\r\n    string description;\r\n    address[] students;\r\n    address[] raters;\r\n  }\r\n\r\n  struct Lesson {\r\n    string name;\r\n    string content;\r\n    string description;\r\n  }\r\n\r\n  struct Chat {\r\n    address sender;\r\n    string msg;\r\n  }\r\n\r\n    Class[] public classes;\r\n    Lesson[][] public lessons;\r\n    Chat[][] public chatroom;\r\n\r\n    mapping(address => uint256[]) public classesTaughtBy;\r\n    mapping(address => uint256[]) public classesStudiedBy;\r\n\r\n\r\n\r\n\r\n    function getClass(uint256 i) public view returns (Class memory) {\r\n      assert(i <= classes.length);\r\n\r\n        return classes[i];\r\n    }\r\n\r\n    function getLesson(uint256 i, uint256 j) public view returns (Lesson memory) {\r\n      assert(i <= lessons[i].length);\r\n\r\n        return lessons[i][j];\r\n    }\r\n\r\n    function getClassCount() public view returns (uint256) {\r\n        return classes.length;\r\n    }\r\n\r\n    function getLessonCount(uint256 i) public view returns (uint256) {\r\n      assert(i <= lessons.length);\r\n\r\n        return lessons[i].length;\r\n    }\r\n\r\n    function classesTaughtByCount(address user) public view returns (uint256) {\r\n        return classesTaughtBy[user].length;\r\n    }\r\n\r\n    function classesStudiedByCount(address user) public view returns (uint256) {\r\n        return classesStudiedBy[user].length;\r\n    }\r\n\r\n    function getClassesTaughtBy(address user, uint256 i) public view returns (uint256) {\r\n      assert(i <= classesTaughtByCount(user));\r\n\r\n        return classesTaughtBy[user][i];\r\n    }\r\n\r\n    function getClassesStudiedBy(address user, uint256 i) public view returns (uint256) {\r\n      assert(i <= classesStudiedByCount(user));\r\n\r\n        return classesStudiedBy[user][i];\r\n    }\r\n\r\n    function getChat(uint256 i, uint256 j) public view returns (Chat memory) {\r\n      assert(i <= chatroom.length);\r\n      assert(j <= chatroom[i].length);\r\n\r\n      return chatroom[i][j];\r\n    }\r\n\r\n    function classChatCount(uint256 i) public view returns (uint256) {\r\n      assert(i <= chatroom.length);\r\n\r\n      return chatroom[i].length;\r\n    }\r\n\r\n    function isTeacher(uint256 i) public view returns (bool) {\r\n      assert(i <= classes.length);\r\n\r\n      if (classes[i].teacher == msg.sender) {\r\n        return true;\r\n      } else {\r\n        return false;\r\n      }\r\n    }\r\n\r\n    function hasPurchasedClass(uint256 i) public view returns (bool) {\r\n      assert(i <= classes.length);\r\n\r\n      for (uint256 j = 0; j < classes[i].students.length; j++) {\r\n        if (classes[i].students[j] == msg.sender) {\r\n          return true;\r\n        }\r\n      }\r\n      return false;\r\n    }\r\n\r\n    function hasRatedClass(uint256 i) public view returns (bool) {\r\n      assert(i <= classes.length);\r\n\r\n      for (uint256 j = 0; j < classes[i].raters.length; j++) {\r\n        if (classes[i].raters[j] == msg.sender) {\r\n          return true;\r\n        }\r\n      }\r\n      return false;\r\n    }\r\n\r\n\r\n\r\n\r\n    function createClass(string memory name, uint256 price, string memory description) public {\r\n      assert(bytes(name).length > 0);\r\n      assert(bytes(name).length <= 20);\r\n      assert(price >= 0);\r\n      assert(price <= 1000000);\r\n      assert(bytes(description).length <= 2000);\r\n\r\n      classes.push(Class(classes.length, name, msg.sender, price, 0, description, new address[](0), new address[](0)));\r\n      classesTaughtBy[msg.sender].push(classes.length);\r\n    }\r\n\r\n    function editClassName(uint256 i, string memory n) public {\r\n      assert(i <= classes.length);\r\n      assert(bytes(n).length > 0);\r\n      assert(bytes(n).length <= 20);\r\n      assert(isTeacher(i));\r\n\r\n      classes[i].name = n;\r\n    }\r\n\r\n    function editClassPrice(uint256 i, uint256 p) public {\r\n      assert(i <= classes.length);\r\n      assert(p >= 0);\r\n      assert(p <= 1000000);\r\n      assert(isTeacher(i));\r\n\r\n      classes[i].price = p;\r\n    }\r\n\r\n    function editClassDescription(uint256 i, string memory d) public {\r\n      assert(i <= classes.length);\r\n      assert(bytes(d).length > 0);\r\n      assert(bytes(d).length <= 2000);\r\n      assert(isTeacher(i));\r\n\r\n      classes[i].description = d;\r\n    }\r\n\r\n    function addLesson(uint256 i, string memory name, string memory content, string memory description)  public {\r\n      assert(i <= classes.length);\r\n      assert(bytes(name).length > 0);\r\n      assert(bytes(name).length <= 20);\r\n      assert(bytes(description).length <= 20000);\r\n      assert(isTeacher(i));\r\n\r\n      lessons[i].push(Lesson(name, content, description));\r\n    }\r\n\r\n    function editLessonName(uint256 i, uint256 j, string memory n) public {\r\n      assert(i <= classes.length);\r\n      assert(j <= lessons[i].length);\r\n      assert(bytes(n).length > 0);\r\n      assert(bytes(n).length <= 20);\r\n      assert(isTeacher(i));\r\n\r\n      lessons[i][j].name = n;\r\n    }\r\n\r\n    function editLessonContent(uint256 i, uint256 j, string memory c) public {\r\n      assert(i <= classes.length);\r\n      assert(j <= lessons[i].length);\r\n      assert(isTeacher(i));\r\n\r\n      lessons[i][j].content = c;\r\n    }\r\n\r\n    function editLessonDescription(uint256 i, uint256 j, string memory d) public {\r\n      assert(i <= classes.length);\r\n      assert(j <= lessons[i].length);\r\n      assert(bytes(d).length > 0);\r\n      assert(bytes(d).length <= 20000);\r\n      assert(isTeacher(i));\r\n\r\n      lessons[i][j].description = d;\r\n    }\r\n\r\n    function deleteLesson(uint256 i, uint256 j) public {\r\n      assert(i <= classes.length);\r\n      assert(j <= lessons[i].length);\r\n      assert(isTeacher(i));\r\n\r\n      delete lessons[i][j];\r\n    }\r\n\r\n    function purchaseClass(uint256 i) public payable {\r\n      assert(i <= classes.length);\r\n      assert(!isTeacher(i));\r\n      assert(!hasPurchasedClass(i));\r\n      assert(msg.value == classes[i].price);\r\n\r\n      classes[i].teacher.transfer(msg.value);\r\n\r\n      classes[i].students.push(msg.sender);\r\n      classesStudiedBy[msg.sender].push(i);\r\n    }\r\n\r\n    function addRating(uint256 i, uint256 r) public {\r\n      assert(i <= classes.length);\r\n      assert(hasPurchasedClass(i));\r\n      assert(!hasRatedClass(i));\r\n      assert(i <= 5);\r\n\r\n      classes[i].rating + r/classes[i].raters.length + 1;\r\n      classes[i].raters.push(msg.sender);\r\n    }\r\n\r\n    function chat(uint256 i, string memory m) public payable {\r\n      assert(i <= classes.length);\r\n      assert(hasPurchasedClass(i));\r\n      assert(bytes(m).length > 0);\r\n      assert(bytes(m).length <= 200);\r\n\r\n      chatroom[i].push(Chat(msg.sender, m));\r\n    }\r\n  }\r\n",
  "sourcePath": "C:/Users/sabri/OneDrive/Documents/Vibe/contracts/Vibe.sol",
  "compiler": {
    "name": "solc",
    "version": "0.5.16+commit.9c3226ce.Emscripten.clang"
  },
  "schemaVersion": "3.2.4",
  "updatedAt": "2021-03-06T15:46:47.623Z",
  "devdoc": {
    "methods": {}
  },
  "userdoc": {
    "methods": {}
  }
}