{
  "contractName": "Vibe",
  "abi": [
    {
      "constant": true,
      "inputs": [
        {
          "internalType": "uint256",
          "name": "",
          "type": "uint256"
        }
      ],
      "name": "classes",
      "outputs": [
        {
          "internalType": "string",
          "name": "name",
          "type": "string"
        },
        {
          "internalType": "address payable",
          "name": "teacher",
          "type": "address"
        },
        {
          "internalType": "uint256",
          "name": "price",
          "type": "uint256"
        },
        {
          "internalType": "uint256",
          "name": "rating",
          "type": "uint256"
        },
        {
          "internalType": "string",
          "name": "description",
          "type": "string"
        }
      ],
      "payable": false,
      "stateMutability": "view",
      "type": "function"
    },
    {
      "constant": true,
      "inputs": [
        {
          "internalType": "address",
          "name": "",
          "type": "address"
        },
        {
          "internalType": "uint256",
          "name": "",
          "type": "uint256"
        }
      ],
      "name": "classesStudiedBy",
      "outputs": [
        {
          "internalType": "uint256",
          "name": "",
          "type": "uint256"
        }
      ],
      "payable": false,
      "stateMutability": "view",
      "type": "function"
    },
    {
      "constant": true,
      "inputs": [
        {
          "internalType": "address",
          "name": "",
          "type": "address"
        },
        {
          "internalType": "uint256",
          "name": "",
          "type": "uint256"
        }
      ],
      "name": "classesTaughtBy",
      "outputs": [
        {
          "internalType": "uint256",
          "name": "",
          "type": "uint256"
        }
      ],
      "payable": false,
      "stateMutability": "view",
      "type": "function"
    },
    {
      "constant": true,
      "inputs": [
        {
          "internalType": "uint256",
          "name": "",
          "type": "uint256"
        }
      ],
      "name": "lessons",
      "outputs": [
        {
          "internalType": "uint256",
          "name": "c",
          "type": "uint256"
        },
        {
          "internalType": "string",
          "name": "name",
          "type": "string"
        },
        {
          "internalType": "string",
          "name": "content",
          "type": "string"
        },
        {
          "internalType": "string",
          "name": "description",
          "type": "string"
        }
      ],
      "payable": false,
      "stateMutability": "view",
      "type": "function"
    },
    {
      "constant": true,
      "inputs": [
        {
          "internalType": "uint256",
          "name": "i",
          "type": "uint256"
        }
      ],
      "name": "getClass",
      "outputs": [
        {
          "components": [
            {
              "internalType": "string",
              "name": "name",
              "type": "string"
            },
            {
              "internalType": "address payable",
              "name": "teacher",
              "type": "address"
            },
            {
              "internalType": "uint256",
              "name": "price",
              "type": "uint256"
            },
            {
              "internalType": "uint256",
              "name": "rating",
              "type": "uint256"
            },
            {
              "internalType": "string",
              "name": "description",
              "type": "string"
            },
            {
              "internalType": "address[]",
              "name": "students",
              "type": "address[]"
            },
            {
              "internalType": "address[]",
              "name": "raters",
              "type": "address[]"
            },
            {
              "internalType": "uint256[]",
              "name": "lessons",
              "type": "uint256[]"
            }
          ],
          "internalType": "struct Vibe.Class",
          "name": "",
          "type": "tuple"
        }
      ],
      "payable": false,
      "stateMutability": "view",
      "type": "function"
    },
    {
      "constant": true,
      "inputs": [
        {
          "internalType": "uint256",
          "name": "i",
          "type": "uint256"
        }
      ],
      "name": "getLesson",
      "outputs": [
        {
          "components": [
            {
              "internalType": "uint256",
              "name": "c",
              "type": "uint256"
            },
            {
              "internalType": "string",
              "name": "name",
              "type": "string"
            },
            {
              "internalType": "string",
              "name": "content",
              "type": "string"
            },
            {
              "internalType": "string",
              "name": "description",
              "type": "string"
            }
          ],
          "internalType": "struct Vibe.Lesson",
          "name": "",
          "type": "tuple"
        }
      ],
      "payable": false,
      "stateMutability": "view",
      "type": "function"
    },
    {
      "constant": true,
      "inputs": [],
      "name": "getClassCount",
      "outputs": [
        {
          "internalType": "uint256",
          "name": "",
          "type": "uint256"
        }
      ],
      "payable": false,
      "stateMutability": "view",
      "type": "function"
    },
    {
      "constant": true,
      "inputs": [
        {
          "internalType": "address",
          "name": "user",
          "type": "address"
        }
      ],
      "name": "classesTaughtByCount",
      "outputs": [
        {
          "internalType": "uint256",
          "name": "",
          "type": "uint256"
        }
      ],
      "payable": false,
      "stateMutability": "view",
      "type": "function"
    },
    {
      "constant": true,
      "inputs": [
        {
          "internalType": "address",
          "name": "user",
          "type": "address"
        }
      ],
      "name": "classesStudiedByCount",
      "outputs": [
        {
          "internalType": "uint256",
          "name": "",
          "type": "uint256"
        }
      ],
      "payable": false,
      "stateMutability": "view",
      "type": "function"
    },
    {
      "constant": true,
      "inputs": [
        {
          "internalType": "address",
          "name": "user",
          "type": "address"
        },
        {
          "internalType": "uint256",
          "name": "i",
          "type": "uint256"
        }
      ],
      "name": "getClassesTaughtBy",
      "outputs": [
        {
          "internalType": "uint256",
          "name": "",
          "type": "uint256"
        }
      ],
      "payable": false,
      "stateMutability": "view",
      "type": "function"
    },
    {
      "constant": true,
      "inputs": [
        {
          "internalType": "address",
          "name": "user",
          "type": "address"
        },
        {
          "internalType": "uint256",
          "name": "i",
          "type": "uint256"
        }
      ],
      "name": "getClassesStudiedBy",
      "outputs": [
        {
          "internalType": "uint256",
          "name": "",
          "type": "uint256"
        }
      ],
      "payable": false,
      "stateMutability": "view",
      "type": "function"
    },
    {
      "constant": true,
      "inputs": [
        {
          "internalType": "uint256",
          "name": "i",
          "type": "uint256"
        }
      ],
      "name": "isTeacher",
      "outputs": [
        {
          "internalType": "bool",
          "name": "",
          "type": "bool"
        }
      ],
      "payable": false,
      "stateMutability": "view",
      "type": "function"
    },
    {
      "constant": true,
      "inputs": [
        {
          "internalType": "uint256",
          "name": "i",
          "type": "uint256"
        }
      ],
      "name": "hasPurchasedClass",
      "outputs": [
        {
          "internalType": "bool",
          "name": "",
          "type": "bool"
        }
      ],
      "payable": false,
      "stateMutability": "view",
      "type": "function"
    },
    {
      "constant": true,
      "inputs": [
        {
          "internalType": "uint256",
          "name": "i",
          "type": "uint256"
        }
      ],
      "name": "hasRatedClass",
      "outputs": [
        {
          "internalType": "bool",
          "name": "",
          "type": "bool"
        }
      ],
      "payable": false,
      "stateMutability": "view",
      "type": "function"
    },
    {
      "constant": false,
      "inputs": [
        {
          "internalType": "string",
          "name": "name",
          "type": "string"
        },
        {
          "internalType": "uint256",
          "name": "price",
          "type": "uint256"
        },
        {
          "internalType": "string",
          "name": "description",
          "type": "string"
        }
      ],
      "name": "createClass",
      "outputs": [],
      "payable": false,
      "stateMutability": "nonpayable",
      "type": "function"
    },
    {
      "constant": false,
      "inputs": [
        {
          "internalType": "uint256",
          "name": "i",
          "type": "uint256"
        },
        {
          "internalType": "string",
          "name": "name",
          "type": "string"
        },
        {
          "internalType": "string",
          "name": "content",
          "type": "string"
        },
        {
          "internalType": "string",
          "name": "description",
          "type": "string"
        }
      ],
      "name": "addLesson",
      "outputs": [],
      "payable": false,
      "stateMutability": "nonpayable",
      "type": "function"
    },
    {
      "constant": false,
      "inputs": [
        {
          "internalType": "uint256",
          "name": "i",
          "type": "uint256"
        }
      ],
      "name": "purchaseClass",
      "outputs": [],
      "payable": true,
      "stateMutability": "payable",
      "type": "function"
    },
    {
      "constant": false,
      "inputs": [
        {
          "internalType": "uint256",
          "name": "i",
          "type": "uint256"
        },
        {
          "internalType": "uint256",
          "name": "r",
          "type": "uint256"
        }
      ],
      "name": "getRating",
      "outputs": [],
      "payable": false,
      "stateMutability": "nonpayable",
      "type": "function"
    }
  ],
  "bytecode": "0x608060405234801561001057600080fd5b506123f6806100206000396000f3fe6080604052600436106101095760003560e01c806375b6b94d11610095578063b144da7211610064578063b144da72146103bc578063c5815d01146103f9578063cbfe253f14610436578063e1d1a84114610473578063f15a16df146104b357610109565b806375b6b94d146102e5578063817dbe9f1461032257806384ecf9f9146103635780638aca655c1461037f57610109565b8063420014ab116100dc578063420014ab146101dc578063512d62df146102055780635f4c1d19146102425780636d977d361461027f57806371be527e146102bc57610109565b80630b01ca3b1461010e57806310e9aa671461013957806328aaba871461017657806330a00f41146101b3575b600080fd5b34801561011a57600080fd5b506101236104f0565b604051610130919061216b565b60405180910390f35b34801561014557600080fd5b50610160600480360361015b9190810190611ca6565b6104fc565b60405161016d91906120ab565b60405180910390f35b34801561018257600080fd5b5061019d60048036036101989190810190611bc2565b6105e4565b6040516101aa919061216b565b60405180910390f35b3480156101bf57600080fd5b506101da60048036036101d59190810190611d7a565b610630565b005b3480156101e857600080fd5b5061020360048036036101fe9190810190611ccf565b610728565b005b34801561021157600080fd5b5061022c60048036036102279190810190611ca6565b61085f565b6040516102399190612127565b60405180910390f35b34801561024e57600080fd5b5061026960048036036102649190810190611beb565b610bc6565b604051610276919061216b565b60405180910390f35b34801561028b57600080fd5b506102a660048036036102a19190810190611beb565b610c37565b6040516102b3919061216b565b60405180910390f35b3480156102c857600080fd5b506102e360048036036102de9190810190611c27565b610c65565b005b3480156102f157600080fd5b5061030c60048036036103079190810190611beb565b610f05565b604051610319919061216b565b60405180910390f35b34801561032e57600080fd5b5061034960048036036103449190810190611ca6565b610f33565b60405161035a9594939291906120c6565b60405180910390f35b61037d60048036036103789190810190611ca6565b6110c6565b005b34801561038b57600080fd5b506103a660048036036103a19190810190611beb565b61128f565b6040516103b3919061216b565b60405180910390f35b3480156103c857600080fd5b506103e360048036036103de9190810190611ca6565b611300565b6040516103f091906120ab565b60405180910390f35b34801561040557600080fd5b50610420600480360361041b9190810190611bc2565b6113e8565b60405161042d919061216b565b60405180910390f35b34801561044257600080fd5b5061045d60048036036104589190810190611ca6565b611434565b60405161046a9190612149565b60405180910390f35b34801561047f57600080fd5b5061049a60048036036104959190810190611ca6565b611668565b6040516104aa9493929190612186565b60405180910390f35b3480156104bf57600080fd5b506104da60048036036104d59190810190611ca6565b61186d565b6040516104e791906120ab565b60405180910390f35b60008080549050905090565b6000808054905082111561050c57fe5b60008090505b6000838154811061051f57fe5b9060005260206000209060080201600601805490508110156105d9573373ffffffffffffffffffffffffffffffffffffffff166000848154811061055f57fe5b9060005260206000209060080201600601828154811061057b57fe5b9060005260206000200160009054906101000a900473ffffffffffffffffffffffffffffffffffffffff1673ffffffffffffffffffffffffffffffffffffffff1614156105cc5760019150506105df565b8080600101915050610512565b50600090505b919050565b6000600360008373ffffffffffffffffffffffffffffffffffffffff1673ffffffffffffffffffffffffffffffffffffffff168152602001908152602001600020805490509050919050565b60008054905082111561063f57fe5b610648826104fc565b1561064f57fe5b600582111561065a57fe5b60016000838154811061066957fe5b906000526020600020906008020160060180549050828161068657fe5b046000848154811061069457fe5b9060005260206000209050505050600082815481106106af57fe5b90600052602060002090600802016006013390806001815401808255809150509060018203906000526020600020016000909192909190916101000a81548173ffffffffffffffffffffffffffffffffffffffff021916908373ffffffffffffffffffffffffffffffffffffffff160217905550505050565b60008054905084111561073757fe5b600083511161074257fe5b60148351111561074e57fe5b60c88151111561075a57fe5b6001604051806080016040528086815260200185815260200184815260200183815250908060018154018082558091505090600182039060005260206000209060040201600090919290919091506000820151816000015560208201518160010190805190602001906107ce929190611902565b5060408201518160020190805190602001906107eb929190611902565b506060820151816003019080519060200190610808929190611902565b505050506000848154811061081957fe5b9060005260206000209060080201600701600180549050908060018154018082558091505090600182039060005260206000200160009091929091909150555050505050565b610867611982565b60008054905082111561087657fe5b6000828154811061088357fe5b906000526020600020906008020160405180610100016040529081600082018054600181600116156101000203166002900480601f0160208091040260200160405190810160405280929190818152602001828054600181600116156101000203166002900480156109365780601f1061090b57610100808354040283529160200191610936565b820191906000526020600020905b81548152906001019060200180831161091957829003601f168201915b505050505081526020016001820160009054906101000a900473ffffffffffffffffffffffffffffffffffffffff1673ffffffffffffffffffffffffffffffffffffffff1673ffffffffffffffffffffffffffffffffffffffff1681526020016002820154815260200160038201548152602001600482018054600181600116156101000203166002900480601f016020809104026020016040519081016040528092919081815260200182805460018160011615610100020316600290048015610a425780601f10610a1757610100808354040283529160200191610a42565b820191906000526020600020905b815481529060010190602001808311610a2557829003601f168201915b5050505050815260200160058201805480602002602001604051908101604052809291908181526020018280548015610ad057602002820191906000526020600020905b8160009054906101000a900473ffffffffffffffffffffffffffffffffffffffff1673ffffffffffffffffffffffffffffffffffffffff1681526020019060010190808311610a86575b5050505050815260200160068201805480602002602001604051908101604052809291908181526020018280548015610b5e57602002820191906000526020600020905b8160009054906101000a900473ffffffffffffffffffffffffffffffffffffffff1673ffffffffffffffffffffffffffffffffffffffff1681526020019060010190808311610b14575b5050505050815260200160078201805480602002602001604051908101604052809291908181526020018280548015610bb657602002820191906000526020600020905b815481526020019060010190808311610ba2575b5050505050815250509050919050565b6000610bd1836113e8565b821115610bda57fe5b600260008473ffffffffffffffffffffffffffffffffffffffff1673ffffffffffffffffffffffffffffffffffffffff1681526020019081526020016000208281548110610c2457fe5b9060005260206000200154905092915050565b60036020528160005260406000208181548110610c5057fe5b90600052602060002001600091509150505481565b6000835111610c7057fe5b601483511115610c7c57fe5b620f4240821115610c8957fe5b60c881511115610c9557fe5b60006040518061010001604052808581526020013373ffffffffffffffffffffffffffffffffffffffff168152602001848152602001600081526020018381526020016000604051908082528060200260200182016040528015610d085781602001602082028038833980820191505090505b5081526020016000604051908082528060200260200182016040528015610d3e5781602001602082028038833980820191505090505b5081526020016000604051908082528060200260200182016040528015610d745781602001602082028038833980820191505090505b50815250908060018154018082558091505090600182039060005260206000209060080201600090919290919091506000820151816000019080519060200190610dbf929190611902565b5060208201518160010160006101000a81548173ffffffffffffffffffffffffffffffffffffffff021916908373ffffffffffffffffffffffffffffffffffffffff16021790555060408201518160020155606082015181600301556080820151816004019080519060200190610e37929190611902565b5060a0820151816005019080519060200190610e549291906119dd565b5060c0820151816006019080519060200190610e719291906119dd565b5060e0820151816007019080519060200190610e8e929190611a67565b50505050600260003373ffffffffffffffffffffffffffffffffffffffff1673ffffffffffffffffffffffffffffffffffffffff1681526020019081526020016000206000805490509080600181540180825580915050906001820390600052602060002001600090919290919091505550505050565b60026020528160005260406000208181548110610f1e57fe5b90600052602060002001600091509150505481565b60008181548110610f4057fe5b9060005260206000209060080201600091509050806000018054600181600116156101000203166002900480601f016020809104026020016040519081016040528092919081815260200182805460018160011615610100020316600290048015610fec5780601f10610fc157610100808354040283529160200191610fec565b820191906000526020600020905b815481529060010190602001808311610fcf57829003601f168201915b5050505050908060010160009054906101000a900473ffffffffffffffffffffffffffffffffffffffff1690806002015490806003015490806004018054600181600116156101000203166002900480601f0160208091040260200160405190810160405280929190818152602001828054600181600116156101000203166002900480156110bc5780601f10611091576101008083540402835291602001916110bc565b820191906000526020600020905b81548152906001019060200180831161109f57829003601f168201915b5050505050905085565b6000805490508111156110d557fe5b6110de8161186d565b156110e557fe5b6110ee81611300565b156110f557fe5b6000818154811061110257fe5b906000526020600020906008020160020154341461111c57fe5b6000818154811061112957fe5b906000526020600020906008020160010160009054906101000a900473ffffffffffffffffffffffffffffffffffffffff1673ffffffffffffffffffffffffffffffffffffffff166108fc349081150290604051600060405180830381858888f193505050501580156111a0573d6000803e3d6000fd5b50600081815481106111ae57fe5b90600052602060002090600802016005013390806001815401808255809150509060018203906000526020600020016000909192909190916101000a81548173ffffffffffffffffffffffffffffffffffffffff021916908373ffffffffffffffffffffffffffffffffffffffff16021790555050600360003373ffffffffffffffffffffffffffffffffffffffff1673ffffffffffffffffffffffffffffffffffffffff16815260200190815260200160002081908060018154018082558091505090600182039060005260206000200160009091929091909150555050565b600061129a836105e4565b8211156112a357fe5b600360008473ffffffffffffffffffffffffffffffffffffffff1673ffffffffffffffffffffffffffffffffffffffff16815260200190815260200160002082815481106112ed57fe5b9060005260206000200154905092915050565b6000808054905082111561131057fe5b60008090505b6000838154811061132357fe5b9060005260206000209060080201600501805490508110156113dd573373ffffffffffffffffffffffffffffffffffffffff166000848154811061136357fe5b9060005260206000209060080201600501828154811061137f57fe5b9060005260206000200160009054906101000a900473ffffffffffffffffffffffffffffffffffffffff1673ffffffffffffffffffffffffffffffffffffffff1614156113d05760019150506113e3565b8080600101915050611316565b50600090505b919050565b6000600260008373ffffffffffffffffffffffffffffffffffffffff1673ffffffffffffffffffffffffffffffffffffffff168152602001908152602001600020805490509050919050565b61143c611ab4565b60018054905082111561144b57fe5b6001828154811061145857fe5b906000526020600020906004020160405180608001604052908160008201548152602001600182018054600181600116156101000203166002900480601f0160208091040260200160405190810160405280929190818152602001828054600181600116156101000203166002900480156115145780601f106114e957610100808354040283529160200191611514565b820191906000526020600020905b8154815290600101906020018083116114f757829003601f168201915b50505050508152602001600282018054600181600116156101000203166002900480601f0160208091040260200160405190810160405280929190818152602001828054600181600116156101000203166002900480156115b65780601f1061158b576101008083540402835291602001916115b6565b820191906000526020600020905b81548152906001019060200180831161159957829003601f168201915b50505050508152602001600382018054600181600116156101000203166002900480601f0160208091040260200160405190810160405280929190818152602001828054600181600116156101000203166002900480156116585780601f1061162d57610100808354040283529160200191611658565b820191906000526020600020905b81548152906001019060200180831161163b57829003601f168201915b5050505050815250509050919050565b6001818154811061167557fe5b9060005260206000209060040201600091509050806000015490806001018054600181600116156101000203166002900480601f0160208091040260200160405190810160405280929190818152602001828054600181600116156101000203166002900480156117275780601f106116fc57610100808354040283529160200191611727565b820191906000526020600020905b81548152906001019060200180831161170a57829003601f168201915b505050505090806002018054600181600116156101000203166002900480601f0160208091040260200160405190810160405280929190818152602001828054600181600116156101000203166002900480156117c55780601f1061179a576101008083540402835291602001916117c5565b820191906000526020600020905b8154815290600101906020018083116117a857829003601f168201915b505050505090806003018054600181600116156101000203166002900480601f0160208091040260200160405190810160405280929190818152602001828054600181600116156101000203166002900480156118635780601f1061183857610100808354040283529160200191611863565b820191906000526020600020905b81548152906001019060200180831161184657829003601f168201915b5050505050905084565b6000808054905082111561187d57fe5b3373ffffffffffffffffffffffffffffffffffffffff16600083815481106118a157fe5b906000526020600020906008020160010160009054906101000a900473ffffffffffffffffffffffffffffffffffffffff1673ffffffffffffffffffffffffffffffffffffffff1614156118f857600190506118fd565b600090505b919050565b828054600181600116156101000203166002900490600052602060002090601f016020900481019282601f1061194357805160ff1916838001178555611971565b82800160010185558215611971579182015b82811115611970578251825591602001919060010190611955565b5b50905061197e9190611adc565b5090565b60405180610100016040528060608152602001600073ffffffffffffffffffffffffffffffffffffffff1681526020016000815260200160008152602001606081526020016060815260200160608152602001606081525090565b828054828255906000526020600020908101928215611a56579160200282015b82811115611a555782518260006101000a81548173ffffffffffffffffffffffffffffffffffffffff021916908373ffffffffffffffffffffffffffffffffffffffff160217905550916020019190600101906119fd565b5b509050611a639190611b01565b5090565b828054828255906000526020600020908101928215611aa3579160200282015b82811115611aa2578251825591602001919060010190611a87565b5b509050611ab09190611adc565b5090565b6040518060800160405280600081526020016060815260200160608152602001606081525090565b611afe91905b80821115611afa576000816000905550600101611ae2565b5090565b90565b611b4191905b80821115611b3d57600081816101000a81549073ffffffffffffffffffffffffffffffffffffffff021916905550600101611b07565b5090565b90565b600081359050611b5381612385565b92915050565b600082601f830112611b6a57600080fd5b8135611b7d611b788261220d565b6121e0565b91508082526020830160208301858383011115611b9957600080fd5b611ba4838284612332565b50505092915050565b600081359050611bbc8161239c565b92915050565b600060208284031215611bd457600080fd5b6000611be284828501611b44565b91505092915050565b60008060408385031215611bfe57600080fd5b6000611c0c85828601611b44565b9250506020611c1d85828601611bad565b9150509250929050565b600080600060608486031215611c3c57600080fd5b600084013567ffffffffffffffff811115611c5657600080fd5b611c6286828701611b59565b9350506020611c7386828701611bad565b925050604084013567ffffffffffffffff811115611c9057600080fd5b611c9c86828701611b59565b9150509250925092565b600060208284031215611cb857600080fd5b6000611cc684828501611bad565b91505092915050565b60008060008060808587031215611ce557600080fd5b6000611cf387828801611bad565b945050602085013567ffffffffffffffff811115611d1057600080fd5b611d1c87828801611b59565b935050604085013567ffffffffffffffff811115611d3957600080fd5b611d4587828801611b59565b925050606085013567ffffffffffffffff811115611d6257600080fd5b611d6e87828801611b59565b91505092959194509250565b60008060408385031215611d8d57600080fd5b6000611d9b85828601611bad565b9250506020611dac85828601611bad565b9150509250929050565b6000611dc28383611e04565b60208301905092915050565b6000611dda838361208d565b60208301905092915050565b611def816122ea565b82525050565b611dfe816122ea565b82525050565b611e0d816122d8565b82525050565b6000611e1e82612259565b611e288185612294565b9350611e3383612239565b8060005b83811015611e64578151611e4b8882611db6565b9750611e568361227a565b925050600181019050611e37565b5085935050505092915050565b6000611e7c82612264565b611e8681856122a5565b9350611e9183612249565b8060005b83811015611ec2578151611ea98882611dce565b9750611eb483612287565b925050600181019050611e95565b5085935050505092915050565b611ed8816122fc565b82525050565b6000611ee98261226f565b611ef381856122b6565b9350611f03818560208601612341565b611f0c81612374565b840191505092915050565b6000611f228261226f565b611f2c81856122c7565b9350611f3c818560208601612341565b611f4581612374565b840191505092915050565b6000610100830160008301518482036000860152611f6e8282611ede565b9150506020830151611f836020860182611de6565b506040830151611f96604086018261208d565b506060830151611fa9606086018261208d565b5060808301518482036080860152611fc18282611ede565b91505060a083015184820360a0860152611fdb8282611e13565b91505060c083015184820360c0860152611ff58282611e13565b91505060e083015184820360e086015261200f8282611e71565b9150508091505092915050565b6000608083016000830151612034600086018261208d565b506020830151848203602086015261204c8282611ede565b915050604083015184820360408601526120668282611ede565b915050606083015184820360608601526120808282611ede565b9150508091505092915050565b61209681612328565b82525050565b6120a581612328565b82525050565b60006020820190506120c06000830184611ecf565b92915050565b600060a08201905081810360008301526120e08188611f17565b90506120ef6020830187611df5565b6120fc604083018661209c565b612109606083018561209c565b818103608083015261211b8184611f17565b90509695505050505050565b600060208201905081810360008301526121418184611f50565b905092915050565b60006020820190508181036000830152612163818461201c565b905092915050565b6000602082019050612180600083018461209c565b92915050565b600060808201905061219b600083018761209c565b81810360208301526121ad8186611f17565b905081810360408301526121c18185611f17565b905081810360608301526121d58184611f17565b905095945050505050565b6000604051905081810181811067ffffffffffffffff8211171561220357600080fd5b8060405250919050565b600067ffffffffffffffff82111561222457600080fd5b601f19601f8301169050602081019050919050565b6000819050602082019050919050565b6000819050602082019050919050565b600081519050919050565b600081519050919050565b600081519050919050565b6000602082019050919050565b6000602082019050919050565b600082825260208201905092915050565b600082825260208201905092915050565b600082825260208201905092915050565b600082825260208201905092915050565b60006122e382612308565b9050919050565b60006122f582612308565b9050919050565b60008115159050919050565b600073ffffffffffffffffffffffffffffffffffffffff82169050919050565b6000819050919050565b82818337600083830152505050565b60005b8381101561235f578082015181840152602081019050612344565b8381111561236e576000848401525b50505050565b6000601f19601f8301169050919050565b61238e816122d8565b811461239957600080fd5b50565b6123a581612328565b81146123b057600080fd5b5056fea365627a7a723158206db764a440c34d0f9bf42e9584646e352f44e8484b463f12b81d5cd292adb0306c6578706572696d656e74616cf564736f6c63430005100040",
  "source": "//Project: Vibe\r\n//Author: Team Vibe\r\n//Date: March 5, 2021\r\n\r\npragma solidity >=0.4.22 <0.8.0;\r\npragma experimental ABIEncoderV2;\r\n\r\ncontract Vibe {\r\n\r\n  struct Class {\r\n    string name;\r\n    address payable teacher;\r\n    uint256 price;\r\n    uint256 rating;\r\n    string description;\r\n    address[] students;\r\n    address[] raters;\r\n    uint256[] lessons;\r\n  }\r\n\r\n  struct Lesson {\r\n    uint256 c;\r\n    string name;\r\n    string content;\r\n    string description;\r\n  }\r\n\r\n    Class[] public classes;\r\n    Lesson[] public lessons;\r\n\r\n    mapping(address => uint256[]) public classesTaughtBy;\r\n    mapping(address => uint256[]) public classesStudiedBy;\r\n\r\n\r\n\r\n\r\n    function getClass(uint256 i) public view returns (Class memory) {\r\n      assert(i <= classes.length);\r\n\r\n        return classes[i];\r\n    }\r\n\r\n    function getLesson(uint256 i) public view returns (Lesson memory) {\r\n      assert(i <= lessons.length);\r\n\r\n        return lessons[i];\r\n    }\r\n\r\n    function getClassCount() public view returns (uint256) {\r\n        return classes.length;\r\n    }\r\n\r\n    function classesTaughtByCount(address user) public view returns (uint256) {\r\n        return classesTaughtBy[user].length;\r\n    }\r\n\r\n    function classesStudiedByCount(address user) public view returns (uint256) {\r\n        return classesStudiedBy[user].length;\r\n    }\r\n\r\n    function getClassesTaughtBy(address user, uint256 i) public view returns (uint256) {\r\n      assert(i <= classesTaughtByCount(user));\r\n\r\n        return classesTaughtBy[user][i];\r\n    }\r\n\r\n    function getClassesStudiedBy(address user, uint256 i) public view returns (uint256) {\r\n      assert(i <= classesStudiedByCount(user));\r\n\r\n        return classesStudiedBy[user][i];\r\n    }\r\n\r\n    function isTeacher(uint256 i) public view returns (bool) {\r\n      assert(i <= classes.length);\r\n\r\n      if (classes[i].teacher == msg.sender) {\r\n        return true;\r\n      } else {\r\n        return false;\r\n      }\r\n    }\r\n\r\n    function hasPurchasedClass(uint256 i) public view returns (bool) {\r\n      assert(i <= classes.length);\r\n\r\n      for (uint256 j = 0; j < classes[i].students.length; j++) {\r\n        if (classes[i].students[j] == msg.sender) {\r\n          return true;\r\n        }\r\n      }\r\n      return false;\r\n    }\r\n\r\n    function hasRatedClass(uint256 i) public view returns (bool) {\r\n      assert(i <= classes.length);\r\n\r\n      for (uint256 j = 0; j < classes[i].raters.length; j++) {\r\n        if (classes[i].raters[j] == msg.sender) {\r\n          return true;\r\n        }\r\n      }\r\n      return false;\r\n    }\r\n\r\n\r\n\r\n\r\n    function createClass(string memory name, uint256 price, string memory description) public {\r\n      assert(bytes(name).length > 0);\r\n      assert(bytes(name).length <= 20);\r\n      assert(price <= 1000000);\r\n      assert(bytes(description).length <= 200);\r\n\r\n      classes.push(Class(name, msg.sender, price, 0, description, new address[](0), new address[](0), new uint256[](0)));\r\n      classesTaughtBy[msg.sender].push(classes.length);\r\n    }\r\n\r\n    function addLesson(uint256 i, string memory name, string memory content, string memory description)  public {\r\n      assert(i <= classes.length);\r\n      assert(bytes(name).length > 0);\r\n      assert(bytes(name).length <= 20);\r\n      assert(bytes(description).length <= 200);\r\n\r\n      lessons.push(Lesson(i, name, content, description));\r\n      classes[i].lessons.push(lessons.length);\r\n    }\r\n\r\n    function purchaseClass(uint256 i) public payable {\r\n      assert(i <= classes.length);\r\n      assert(!isTeacher(i));\r\n      assert(!hasPurchasedClass(i));\r\n      assert(msg.value == classes[i].price);\r\n\r\n      classes[i].teacher.transfer(msg.value);\r\n\r\n      classes[i].students.push(msg.sender);\r\n      classesStudiedBy[msg.sender].push(i);\r\n    }\r\n\r\n    function getRating(uint256 i, uint256 r) public {\r\n      assert(i <= classes.length);\r\n      assert(!hasRatedClass(i));\r\n      assert(i <= 5);\r\n\r\n      classes[i].rating + r/classes[i].raters.length + 1;\r\n      classes[i].raters.push(msg.sender);\r\n    }\r\n  }\r\n",
  "sourcePath": "C:/Users/sabri/OneDrive/Documents/SF Hacks/contracts/Vibe.sol",
  "compiler": {
    "name": "solc",
    "version": "0.5.16+commit.9c3226ce.Emscripten.clang"
  },
  "schemaVersion": "3.2.4",
  "updatedAt": "2021-03-05T15:04:45.266Z",
  "networkType": "ethereum",
  "devdoc": {
    "methods": {}
  },
  "userdoc": {
    "methods": {}
  }
}