{
  "contractName": "Vibe",
  "abi": [
    {
      "constant": true,
      "inputs": [
        {
          "internalType": "uint256",
          "name": "",
          "type": "uint256"
        }
      ],
      "name": "classes",
      "outputs": [
        {
          "internalType": "uint256",
          "name": "id",
          "type": "uint256"
        },
        {
          "internalType": "string",
          "name": "name",
          "type": "string"
        },
        {
          "internalType": "address payable",
          "name": "teacher",
          "type": "address"
        },
        {
          "internalType": "uint256",
          "name": "price",
          "type": "uint256"
        },
        {
          "internalType": "uint256",
          "name": "rating",
          "type": "uint256"
        },
        {
          "internalType": "string",
          "name": "description",
          "type": "string"
        }
      ],
      "payable": false,
      "stateMutability": "view",
      "type": "function"
    },
    {
      "constant": true,
      "inputs": [
        {
          "internalType": "address",
          "name": "",
          "type": "address"
        },
        {
          "internalType": "uint256",
          "name": "",
          "type": "uint256"
        }
      ],
      "name": "classesStudiedBy",
      "outputs": [
        {
          "internalType": "uint256",
          "name": "",
          "type": "uint256"
        }
      ],
      "payable": false,
      "stateMutability": "view",
      "type": "function"
    },
    {
      "constant": true,
      "inputs": [
        {
          "internalType": "address",
          "name": "",
          "type": "address"
        },
        {
          "internalType": "uint256",
          "name": "",
          "type": "uint256"
        }
      ],
      "name": "classesTaughtBy",
      "outputs": [
        {
          "internalType": "uint256",
          "name": "",
          "type": "uint256"
        }
      ],
      "payable": false,
      "stateMutability": "view",
      "type": "function"
    },
    {
      "constant": true,
      "inputs": [
        {
          "internalType": "uint256",
          "name": "",
          "type": "uint256"
        }
      ],
      "name": "lessons",
      "outputs": [
        {
          "internalType": "uint256",
          "name": "c",
          "type": "uint256"
        },
        {
          "internalType": "string",
          "name": "name",
          "type": "string"
        },
        {
          "internalType": "string",
          "name": "content",
          "type": "string"
        },
        {
          "internalType": "string",
          "name": "description",
          "type": "string"
        }
      ],
      "payable": false,
      "stateMutability": "view",
      "type": "function"
    },
    {
      "constant": true,
      "inputs": [
        {
          "internalType": "uint256",
          "name": "i",
          "type": "uint256"
        }
      ],
      "name": "getClass",
      "outputs": [
        {
          "components": [
            {
              "internalType": "uint256",
              "name": "id",
              "type": "uint256"
            },
            {
              "internalType": "string",
              "name": "name",
              "type": "string"
            },
            {
              "internalType": "address payable",
              "name": "teacher",
              "type": "address"
            },
            {
              "internalType": "uint256",
              "name": "price",
              "type": "uint256"
            },
            {
              "internalType": "uint256",
              "name": "rating",
              "type": "uint256"
            },
            {
              "internalType": "string",
              "name": "description",
              "type": "string"
            },
            {
              "internalType": "address[]",
              "name": "students",
              "type": "address[]"
            },
            {
              "internalType": "address[]",
              "name": "raters",
              "type": "address[]"
            },
            {
              "internalType": "uint256[]",
              "name": "lessons",
              "type": "uint256[]"
            }
          ],
          "internalType": "struct Vibe.Class",
          "name": "",
          "type": "tuple"
        }
      ],
      "payable": false,
      "stateMutability": "view",
      "type": "function"
    },
    {
      "constant": true,
      "inputs": [
        {
          "internalType": "uint256",
          "name": "i",
          "type": "uint256"
        }
      ],
      "name": "getLesson",
      "outputs": [
        {
          "components": [
            {
              "internalType": "uint256",
              "name": "c",
              "type": "uint256"
            },
            {
              "internalType": "string",
              "name": "name",
              "type": "string"
            },
            {
              "internalType": "string",
              "name": "content",
              "type": "string"
            },
            {
              "internalType": "string",
              "name": "description",
              "type": "string"
            }
          ],
          "internalType": "struct Vibe.Lesson",
          "name": "",
          "type": "tuple"
        }
      ],
      "payable": false,
      "stateMutability": "view",
      "type": "function"
    },
    {
      "constant": true,
      "inputs": [],
      "name": "getClassCount",
      "outputs": [
        {
          "internalType": "uint256",
          "name": "",
          "type": "uint256"
        }
      ],
      "payable": false,
      "stateMutability": "view",
      "type": "function"
    },
    {
      "constant": true,
      "inputs": [
        {
          "internalType": "address",
          "name": "user",
          "type": "address"
        }
      ],
      "name": "classesTaughtByCount",
      "outputs": [
        {
          "internalType": "uint256",
          "name": "",
          "type": "uint256"
        }
      ],
      "payable": false,
      "stateMutability": "view",
      "type": "function"
    },
    {
      "constant": true,
      "inputs": [
        {
          "internalType": "address",
          "name": "user",
          "type": "address"
        }
      ],
      "name": "classesStudiedByCount",
      "outputs": [
        {
          "internalType": "uint256",
          "name": "",
          "type": "uint256"
        }
      ],
      "payable": false,
      "stateMutability": "view",
      "type": "function"
    },
    {
      "constant": true,
      "inputs": [
        {
          "internalType": "address",
          "name": "user",
          "type": "address"
        },
        {
          "internalType": "uint256",
          "name": "i",
          "type": "uint256"
        }
      ],
      "name": "getClassesTaughtBy",
      "outputs": [
        {
          "internalType": "uint256",
          "name": "",
          "type": "uint256"
        }
      ],
      "payable": false,
      "stateMutability": "view",
      "type": "function"
    },
    {
      "constant": true,
      "inputs": [
        {
          "internalType": "address",
          "name": "user",
          "type": "address"
        },
        {
          "internalType": "uint256",
          "name": "i",
          "type": "uint256"
        }
      ],
      "name": "getClassesStudiedBy",
      "outputs": [
        {
          "internalType": "uint256",
          "name": "",
          "type": "uint256"
        }
      ],
      "payable": false,
      "stateMutability": "view",
      "type": "function"
    },
    {
      "constant": true,
      "inputs": [
        {
          "internalType": "uint256",
          "name": "i",
          "type": "uint256"
        }
      ],
      "name": "isTeacher",
      "outputs": [
        {
          "internalType": "bool",
          "name": "",
          "type": "bool"
        }
      ],
      "payable": false,
      "stateMutability": "view",
      "type": "function"
    },
    {
      "constant": true,
      "inputs": [
        {
          "internalType": "uint256",
          "name": "i",
          "type": "uint256"
        }
      ],
      "name": "hasPurchasedClass",
      "outputs": [
        {
          "internalType": "bool",
          "name": "",
          "type": "bool"
        }
      ],
      "payable": false,
      "stateMutability": "view",
      "type": "function"
    },
    {
      "constant": true,
      "inputs": [
        {
          "internalType": "uint256",
          "name": "i",
          "type": "uint256"
        }
      ],
      "name": "hasRatedClass",
      "outputs": [
        {
          "internalType": "bool",
          "name": "",
          "type": "bool"
        }
      ],
      "payable": false,
      "stateMutability": "view",
      "type": "function"
    },
    {
      "constant": false,
      "inputs": [
        {
          "internalType": "string",
          "name": "name",
          "type": "string"
        },
        {
          "internalType": "uint256",
          "name": "price",
          "type": "uint256"
        },
        {
          "internalType": "string",
          "name": "description",
          "type": "string"
        }
      ],
      "name": "createClass",
      "outputs": [],
      "payable": false,
      "stateMutability": "nonpayable",
      "type": "function"
    },
    {
      "constant": false,
      "inputs": [
        {
          "internalType": "uint256",
          "name": "i",
          "type": "uint256"
        },
        {
          "internalType": "string",
          "name": "name",
          "type": "string"
        },
        {
          "internalType": "string",
          "name": "content",
          "type": "string"
        },
        {
          "internalType": "string",
          "name": "description",
          "type": "string"
        }
      ],
      "name": "addLesson",
      "outputs": [],
      "payable": false,
      "stateMutability": "nonpayable",
      "type": "function"
    },
    {
      "constant": false,
      "inputs": [
        {
          "internalType": "uint256",
          "name": "i",
          "type": "uint256"
        }
      ],
      "name": "purchaseClass",
      "outputs": [],
      "payable": true,
      "stateMutability": "payable",
      "type": "function"
    },
    {
      "constant": false,
      "inputs": [
        {
          "internalType": "uint256",
          "name": "i",
          "type": "uint256"
        },
        {
          "internalType": "uint256",
          "name": "r",
          "type": "uint256"
        }
      ],
      "name": "addRating",
      "outputs": [],
      "payable": false,
      "stateMutability": "nonpayable",
      "type": "function"
    }
  ],
  "bytecode": "0x608060405234801561001057600080fd5b50612456806100206000396000f3fe6080604052600436106101095760003560e01c806375b6b94d11610095578063b144da7211610064578063b144da72146103bd578063c5815d01146103fa578063cbfe253f14610437578063e1d1a84114610474578063f15a16df146104b457610109565b806375b6b94d146102e5578063817dbe9f1461032257806384ecf9f9146103645780638aca655c1461038057610109565b8063512d62df116100dc578063512d62df146101dc5780635f4c1d19146102195780636760576a146102565780636d977d361461027f57806371be527e146102bc57610109565b80630b01ca3b1461010e57806310e9aa671461013957806328aaba8714610176578063420014ab146101b3575b600080fd5b34801561011a57600080fd5b506101236104f1565b604051610130919061215c565b60405180910390f35b34801561014557600080fd5b50610160600480360361015b9190810190611ce3565b6104fd565b60405161016d91906120fd565b60405180910390f35b34801561018257600080fd5b5061019d60048036036101989190810190611bff565b6105e5565b6040516101aa919061215c565b60405180910390f35b3480156101bf57600080fd5b506101da60048036036101d59190810190611d0c565b610631565b005b3480156101e857600080fd5b5061020360048036036101fe9190810190611ce3565b610768565b6040516102109190612118565b60405180910390f35b34801561022557600080fd5b50610240600480360361023b9190810190611c28565b610ad9565b60405161024d919061215c565b60405180910390f35b34801561026257600080fd5b5061027d60048036036102789190810190611db7565b610b4a565b005b34801561028b57600080fd5b506102a660048036036102a19190810190611c28565b610c51565b6040516102b3919061215c565b60405180910390f35b3480156102c857600080fd5b506102e360048036036102de9190810190611c64565b610c7f565b005b3480156102f157600080fd5b5061030c60048036036103079190810190611c28565b610f35565b604051610319919061215c565b60405180910390f35b34801561032e57600080fd5b5061034960048036036103449190810190611ce3565b610f63565b60405161035b96959493929190612177565b60405180910390f35b61037e60048036036103799190810190611ce3565b6110fc565b005b34801561038c57600080fd5b506103a760048036036103a29190810190611c28565b6112c5565b6040516103b4919061215c565b60405180910390f35b3480156103c957600080fd5b506103e460048036036103df9190810190611ce3565b611336565b6040516103f191906120fd565b60405180910390f35b34801561040657600080fd5b50610421600480360361041c9190810190611bff565b61141e565b60405161042e919061215c565b60405180910390f35b34801561044357600080fd5b5061045e60048036036104599190810190611ce3565b61146a565b60405161046b919061213a565b60405180910390f35b34801561048057600080fd5b5061049b60048036036104969190810190611ce3565b61169e565b6040516104ab94939291906121e6565b60405180910390f35b3480156104c057600080fd5b506104db60048036036104d69190810190611ce3565b6118a3565b6040516104e891906120fd565b60405180910390f35b60008080549050905090565b6000808054905082111561050d57fe5b60008090505b6000838154811061052057fe5b9060005260206000209060090201600701805490508110156105da573373ffffffffffffffffffffffffffffffffffffffff166000848154811061056057fe5b9060005260206000209060090201600701828154811061057c57fe5b9060005260206000200160009054906101000a900473ffffffffffffffffffffffffffffffffffffffff1673ffffffffffffffffffffffffffffffffffffffff1614156105cd5760019150506105e0565b8080600101915050610513565b50600090505b919050565b6000600360008373ffffffffffffffffffffffffffffffffffffffff1673ffffffffffffffffffffffffffffffffffffffff168152602001908152602001600020805490509050919050565b60008054905084111561064057fe5b600083511161064b57fe5b60148351111561065757fe5b60c88151111561066357fe5b6001604051806080016040528086815260200185815260200184815260200183815250908060018154018082558091505090600182039060005260206000209060040201600090919290919091506000820151816000015560208201518160010190805190602001906106d7929190611938565b5060408201518160020190805190602001906106f4929190611938565b506060820151816003019080519060200190610711929190611938565b505050506000848154811061072257fe5b9060005260206000209060090201600801600180549050908060018154018082558091505090600182039060005260206000200160009091929091909150555050505050565b6107706119b8565b60008054905082111561077f57fe5b6000828154811061078c57fe5b90600052602060002090600902016040518061012001604052908160008201548152602001600182018054600181600116156101000203166002900480601f0160208091040260200160405190810160405280929190818152602001828054600181600116156101000203166002900480156108495780601f1061081e57610100808354040283529160200191610849565b820191906000526020600020905b81548152906001019060200180831161082c57829003601f168201915b505050505081526020016002820160009054906101000a900473ffffffffffffffffffffffffffffffffffffffff1673ffffffffffffffffffffffffffffffffffffffff1673ffffffffffffffffffffffffffffffffffffffff1681526020016003820154815260200160048201548152602001600582018054600181600116156101000203166002900480601f0160208091040260200160405190810160405280929190818152602001828054600181600116156101000203166002900480156109555780601f1061092a57610100808354040283529160200191610955565b820191906000526020600020905b81548152906001019060200180831161093857829003601f168201915b50505050508152602001600682018054806020026020016040519081016040528092919081815260200182805480156109e357602002820191906000526020600020905b8160009054906101000a900473ffffffffffffffffffffffffffffffffffffffff1673ffffffffffffffffffffffffffffffffffffffff1681526020019060010190808311610999575b5050505050815260200160078201805480602002602001604051908101604052809291908181526020018280548015610a7157602002820191906000526020600020905b8160009054906101000a900473ffffffffffffffffffffffffffffffffffffffff1673ffffffffffffffffffffffffffffffffffffffff1681526020019060010190808311610a27575b5050505050815260200160088201805480602002602001604051908101604052809291908181526020018280548015610ac957602002820191906000526020600020905b815481526020019060010190808311610ab5575b5050505050815250509050919050565b6000610ae48361141e565b821115610aed57fe5b600260008473ffffffffffffffffffffffffffffffffffffffff1673ffffffffffffffffffffffffffffffffffffffff1681526020019081526020016000208281548110610b3757fe5b9060005260206000200154905092915050565b600080549050821115610b5957fe5b610b6282611336565b610b6857fe5b610b71826104fd565b15610b7857fe5b6005821115610b8357fe5b600160008381548110610b9257fe5b9060005260206000209060090201600701805490508281610baf57fe5b0460008481548110610bbd57fe5b906000526020600020905050505060008281548110610bd857fe5b90600052602060002090600902016007013390806001815401808255809150509060018203906000526020600020016000909192909190916101000a81548173ffffffffffffffffffffffffffffffffffffffff021916908373ffffffffffffffffffffffffffffffffffffffff160217905550505050565b60036020528160005260406000208181548110610c6a57fe5b90600052602060002001600091509150505481565b6000835111610c8a57fe5b601483511115610c9657fe5b620f4240821115610ca357fe5b60c881511115610caf57fe5b600060405180610120016040528060008054905081526020018581526020013373ffffffffffffffffffffffffffffffffffffffff168152602001848152602001600081526020018381526020016000604051908082528060200260200182016040528015610d2d5781602001602082028038833980820191505090505b5081526020016000604051908082528060200260200182016040528015610d635781602001602082028038833980820191505090505b5081526020016000604051908082528060200260200182016040528015610d995781602001602082028038833980820191505090505b5081525090806001815401808255809150509060018203906000526020600020906009020160009091929091909150600082015181600001556020820151816001019080519060200190610dee929190611938565b5060408201518160020160006101000a81548173ffffffffffffffffffffffffffffffffffffffff021916908373ffffffffffffffffffffffffffffffffffffffff160217905550606082015181600301556080820151816004015560a0820151816005019080519060200190610e66929190611938565b5060c0820151816006019080519060200190610e83929190611a1a565b5060e0820151816007019080519060200190610ea0929190611a1a565b50610100820151816008019080519060200190610ebe929190611aa4565b50505050600260003373ffffffffffffffffffffffffffffffffffffffff1673ffffffffffffffffffffffffffffffffffffffff1681526020019081526020016000206000805490509080600181540180825580915050906001820390600052602060002001600090919290919091505550505050565b60026020528160005260406000208181548110610f4e57fe5b90600052602060002001600091509150505481565b60008181548110610f7057fe5b9060005260206000209060090201600091509050806000015490806001018054600181600116156101000203166002900480601f0160208091040260200160405190810160405280929190818152602001828054600181600116156101000203166002900480156110225780601f10610ff757610100808354040283529160200191611022565b820191906000526020600020905b81548152906001019060200180831161100557829003601f168201915b5050505050908060020160009054906101000a900473ffffffffffffffffffffffffffffffffffffffff1690806003015490806004015490806005018054600181600116156101000203166002900480601f0160208091040260200160405190810160405280929190818152602001828054600181600116156101000203166002900480156110f25780601f106110c7576101008083540402835291602001916110f2565b820191906000526020600020905b8154815290600101906020018083116110d557829003601f168201915b5050505050905086565b60008054905081111561110b57fe5b611114816118a3565b1561111b57fe5b61112481611336565b1561112b57fe5b6000818154811061113857fe5b906000526020600020906009020160030154341461115257fe5b6000818154811061115f57fe5b906000526020600020906009020160020160009054906101000a900473ffffffffffffffffffffffffffffffffffffffff1673ffffffffffffffffffffffffffffffffffffffff166108fc349081150290604051600060405180830381858888f193505050501580156111d6573d6000803e3d6000fd5b50600081815481106111e457fe5b90600052602060002090600902016006013390806001815401808255809150509060018203906000526020600020016000909192909190916101000a81548173ffffffffffffffffffffffffffffffffffffffff021916908373ffffffffffffffffffffffffffffffffffffffff16021790555050600360003373ffffffffffffffffffffffffffffffffffffffff1673ffffffffffffffffffffffffffffffffffffffff16815260200190815260200160002081908060018154018082558091505090600182039060005260206000200160009091929091909150555050565b60006112d0836105e5565b8211156112d957fe5b600360008473ffffffffffffffffffffffffffffffffffffffff1673ffffffffffffffffffffffffffffffffffffffff168152602001908152602001600020828154811061132357fe5b9060005260206000200154905092915050565b6000808054905082111561134657fe5b60008090505b6000838154811061135957fe5b906000526020600020906009020160060180549050811015611413573373ffffffffffffffffffffffffffffffffffffffff166000848154811061139957fe5b906000526020600020906009020160060182815481106113b557fe5b9060005260206000200160009054906101000a900473ffffffffffffffffffffffffffffffffffffffff1673ffffffffffffffffffffffffffffffffffffffff161415611406576001915050611419565b808060010191505061134c565b50600090505b919050565b6000600260008373ffffffffffffffffffffffffffffffffffffffff1673ffffffffffffffffffffffffffffffffffffffff168152602001908152602001600020805490509050919050565b611472611af1565b60018054905082111561148157fe5b6001828154811061148e57fe5b906000526020600020906004020160405180608001604052908160008201548152602001600182018054600181600116156101000203166002900480601f01602080910402602001604051908101604052809291908181526020018280546001816001161561010002031660029004801561154a5780601f1061151f5761010080835404028352916020019161154a565b820191906000526020600020905b81548152906001019060200180831161152d57829003601f168201915b50505050508152602001600282018054600181600116156101000203166002900480601f0160208091040260200160405190810160405280929190818152602001828054600181600116156101000203166002900480156115ec5780601f106115c1576101008083540402835291602001916115ec565b820191906000526020600020905b8154815290600101906020018083116115cf57829003601f168201915b50505050508152602001600382018054600181600116156101000203166002900480601f01602080910402602001604051908101604052809291908181526020018280546001816001161561010002031660029004801561168e5780601f106116635761010080835404028352916020019161168e565b820191906000526020600020905b81548152906001019060200180831161167157829003601f168201915b5050505050815250509050919050565b600181815481106116ab57fe5b9060005260206000209060040201600091509050806000015490806001018054600181600116156101000203166002900480601f01602080910402602001604051908101604052809291908181526020018280546001816001161561010002031660029004801561175d5780601f106117325761010080835404028352916020019161175d565b820191906000526020600020905b81548152906001019060200180831161174057829003601f168201915b505050505090806002018054600181600116156101000203166002900480601f0160208091040260200160405190810160405280929190818152602001828054600181600116156101000203166002900480156117fb5780601f106117d0576101008083540402835291602001916117fb565b820191906000526020600020905b8154815290600101906020018083116117de57829003601f168201915b505050505090806003018054600181600116156101000203166002900480601f0160208091040260200160405190810160405280929190818152602001828054600181600116156101000203166002900480156118995780601f1061186e57610100808354040283529160200191611899565b820191906000526020600020905b81548152906001019060200180831161187c57829003601f168201915b5050505050905084565b600080805490508211156118b357fe5b3373ffffffffffffffffffffffffffffffffffffffff16600083815481106118d757fe5b906000526020600020906009020160020160009054906101000a900473ffffffffffffffffffffffffffffffffffffffff1673ffffffffffffffffffffffffffffffffffffffff16141561192e5760019050611933565b600090505b919050565b828054600181600116156101000203166002900490600052602060002090601f016020900481019282601f1061197957805160ff19168380011785556119a7565b828001600101855582156119a7579182015b828111156119a657825182559160200191906001019061198b565b5b5090506119b49190611b19565b5090565b6040518061012001604052806000815260200160608152602001600073ffffffffffffffffffffffffffffffffffffffff1681526020016000815260200160008152602001606081526020016060815260200160608152602001606081525090565b828054828255906000526020600020908101928215611a93579160200282015b82811115611a925782518260006101000a81548173ffffffffffffffffffffffffffffffffffffffff021916908373ffffffffffffffffffffffffffffffffffffffff16021790555091602001919060010190611a3a565b5b509050611aa09190611b3e565b5090565b828054828255906000526020600020908101928215611ae0579160200282015b82811115611adf578251825591602001919060010190611ac4565b5b509050611aed9190611b19565b5090565b6040518060800160405280600081526020016060815260200160608152602001606081525090565b611b3b91905b80821115611b37576000816000905550600101611b1f565b5090565b90565b611b7e91905b80821115611b7a57600081816101000a81549073ffffffffffffffffffffffffffffffffffffffff021916905550600101611b44565b5090565b90565b600081359050611b90816123e5565b92915050565b600082601f830112611ba757600080fd5b8135611bba611bb58261226d565b612240565b91508082526020830160208301858383011115611bd657600080fd5b611be1838284612392565b50505092915050565b600081359050611bf9816123fc565b92915050565b600060208284031215611c1157600080fd5b6000611c1f84828501611b81565b91505092915050565b60008060408385031215611c3b57600080fd5b6000611c4985828601611b81565b9250506020611c5a85828601611bea565b9150509250929050565b600080600060608486031215611c7957600080fd5b600084013567ffffffffffffffff811115611c9357600080fd5b611c9f86828701611b96565b9350506020611cb086828701611bea565b925050604084013567ffffffffffffffff811115611ccd57600080fd5b611cd986828701611b96565b9150509250925092565b600060208284031215611cf557600080fd5b6000611d0384828501611bea565b91505092915050565b60008060008060808587031215611d2257600080fd5b6000611d3087828801611bea565b945050602085013567ffffffffffffffff811115611d4d57600080fd5b611d5987828801611b96565b935050604085013567ffffffffffffffff811115611d7657600080fd5b611d8287828801611b96565b925050606085013567ffffffffffffffff811115611d9f57600080fd5b611dab87828801611b96565b91505092959194509250565b60008060408385031215611dca57600080fd5b6000611dd885828601611bea565b9250506020611de985828601611bea565b9150509250929050565b6000611dff8383611e41565b60208301905092915050565b6000611e1783836120df565b60208301905092915050565b611e2c8161234a565b82525050565b611e3b8161234a565b82525050565b611e4a81612338565b82525050565b6000611e5b826122b9565b611e6581856122f4565b9350611e7083612299565b8060005b83811015611ea1578151611e888882611df3565b9750611e93836122da565b925050600181019050611e74565b5085935050505092915050565b6000611eb9826122c4565b611ec38185612305565b9350611ece836122a9565b8060005b83811015611eff578151611ee68882611e0b565b9750611ef1836122e7565b925050600181019050611ed2565b5085935050505092915050565b611f158161235c565b82525050565b6000611f26826122cf565b611f308185612316565b9350611f408185602086016123a1565b611f49816123d4565b840191505092915050565b6000611f5f826122cf565b611f698185612327565b9350611f798185602086016123a1565b611f82816123d4565b840191505092915050565b600061012083016000830151611fa660008601826120df565b5060208301518482036020860152611fbe8282611f1b565b9150506040830151611fd36040860182611e23565b506060830151611fe660608601826120df565b506080830151611ff960808601826120df565b5060a083015184820360a08601526120118282611f1b565b91505060c083015184820360c086015261202b8282611e50565b91505060e083015184820360e08601526120458282611e50565b9150506101008301518482036101008601526120618282611eae565b9150508091505092915050565b600060808301600083015161208660008601826120df565b506020830151848203602086015261209e8282611f1b565b915050604083015184820360408601526120b88282611f1b565b915050606083015184820360608601526120d28282611f1b565b9150508091505092915050565b6120e881612388565b82525050565b6120f781612388565b82525050565b60006020820190506121126000830184611f0c565b92915050565b600060208201905081810360008301526121328184611f8d565b905092915050565b60006020820190508181036000830152612154818461206e565b905092915050565b600060208201905061217160008301846120ee565b92915050565b600060c08201905061218c60008301896120ee565b818103602083015261219e8188611f54565b90506121ad6040830187611e32565b6121ba60608301866120ee565b6121c760808301856120ee565b81810360a08301526121d98184611f54565b9050979650505050505050565b60006080820190506121fb60008301876120ee565b818103602083015261220d8186611f54565b905081810360408301526122218185611f54565b905081810360608301526122358184611f54565b905095945050505050565b6000604051905081810181811067ffffffffffffffff8211171561226357600080fd5b8060405250919050565b600067ffffffffffffffff82111561228457600080fd5b601f19601f8301169050602081019050919050565b6000819050602082019050919050565b6000819050602082019050919050565b600081519050919050565b600081519050919050565b600081519050919050565b6000602082019050919050565b6000602082019050919050565b600082825260208201905092915050565b600082825260208201905092915050565b600082825260208201905092915050565b600082825260208201905092915050565b600061234382612368565b9050919050565b600061235582612368565b9050919050565b60008115159050919050565b600073ffffffffffffffffffffffffffffffffffffffff82169050919050565b6000819050919050565b82818337600083830152505050565b60005b838110156123bf5780820151818401526020810190506123a4565b838111156123ce576000848401525b50505050565b6000601f19601f8301169050919050565b6123ee81612338565b81146123f957600080fd5b50565b61240581612388565b811461241057600080fd5b5056fea365627a7a723158208d6ef9270cbb175410419c601c683cc46ad1be25f01b8891889d853b6922e2726c6578706572696d656e74616cf564736f6c63430005100040",
  "source": "//Project: Vibe\r\n//Author: Team Vibe\r\n//Date: March 5, 2021\r\n\r\npragma solidity >=0.4.22 <0.8.0;\r\npragma experimental ABIEncoderV2;\r\n\r\ncontract Vibe {\r\n\r\n  struct Class {\r\n    uint256 id;\r\n    string name;\r\n    address payable teacher;\r\n    uint256 price;\r\n    uint256 rating;\r\n    string description;\r\n    address[] students;\r\n    address[] raters;\r\n    uint256[] lessons;\r\n  }\r\n\r\n  struct Lesson {\r\n    uint256 c;\r\n    string name;\r\n    string content;\r\n    string description;\r\n  }\r\n\r\n    Class[] public classes;\r\n    Lesson[] public lessons;\r\n\r\n    mapping(address => uint256[]) public classesTaughtBy;\r\n    mapping(address => uint256[]) public classesStudiedBy;\r\n\r\n\r\n\r\n\r\n    function getClass(uint256 i) public view returns (Class memory) {\r\n      assert(i <= classes.length);\r\n\r\n        return classes[i];\r\n    }\r\n\r\n    function getLesson(uint256 i) public view returns (Lesson memory) {\r\n      assert(i <= lessons.length);\r\n\r\n        return lessons[i];\r\n    }\r\n\r\n    function getClassCount() public view returns (uint256) {\r\n        return classes.length;\r\n    }\r\n\r\n    function classesTaughtByCount(address user) public view returns (uint256) {\r\n        return classesTaughtBy[user].length;\r\n    }\r\n\r\n    function classesStudiedByCount(address user) public view returns (uint256) {\r\n        return classesStudiedBy[user].length;\r\n    }\r\n\r\n    function getClassesTaughtBy(address user, uint256 i) public view returns (uint256) {\r\n      assert(i <= classesTaughtByCount(user));\r\n\r\n        return classesTaughtBy[user][i];\r\n    }\r\n\r\n    function getClassesStudiedBy(address user, uint256 i) public view returns (uint256) {\r\n      assert(i <= classesStudiedByCount(user));\r\n\r\n        return classesStudiedBy[user][i];\r\n    }\r\n\r\n    function isTeacher(uint256 i) public view returns (bool) {\r\n      assert(i <= classes.length);\r\n\r\n      if (classes[i].teacher == msg.sender) {\r\n        return true;\r\n      } else {\r\n        return false;\r\n      }\r\n    }\r\n\r\n    function hasPurchasedClass(uint256 i) public view returns (bool) {\r\n      assert(i <= classes.length);\r\n\r\n      for (uint256 j = 0; j < classes[i].students.length; j++) {\r\n        if (classes[i].students[j] == msg.sender) {\r\n          return true;\r\n        }\r\n      }\r\n      return false;\r\n    }\r\n\r\n    function hasRatedClass(uint256 i) public view returns (bool) {\r\n      assert(i <= classes.length);\r\n\r\n      for (uint256 j = 0; j < classes[i].raters.length; j++) {\r\n        if (classes[i].raters[j] == msg.sender) {\r\n          return true;\r\n        }\r\n      }\r\n      return false;\r\n    }\r\n\r\n\r\n\r\n\r\n    function createClass(string memory name, uint256 price, string memory description) public {\r\n      assert(bytes(name).length > 0);\r\n      assert(bytes(name).length <= 20);\r\n      assert(price <= 1000000);\r\n      assert(bytes(description).length <= 200);\r\n\r\n      classes.push(Class(classes.length, name, msg.sender, price, 0, description, new address[](0), new address[](0), new uint256[](0)));\r\n      classesTaughtBy[msg.sender].push(classes.length);\r\n    }\r\n\r\n    function addLesson(uint256 i, string memory name, string memory content, string memory description)  public {\r\n      assert(i <= classes.length);\r\n      assert(bytes(name).length > 0);\r\n      assert(bytes(name).length <= 20);\r\n      assert(bytes(description).length <= 200);\r\n\r\n      lessons.push(Lesson(i, name, content, description));\r\n      classes[i].lessons.push(lessons.length);\r\n    }\r\n\r\n    function purchaseClass(uint256 i) public payable {\r\n      assert(i <= classes.length);\r\n      assert(!isTeacher(i));\r\n      assert(!hasPurchasedClass(i));\r\n      assert(msg.value == classes[i].price);\r\n\r\n      classes[i].teacher.transfer(msg.value);\r\n\r\n      classes[i].students.push(msg.sender);\r\n      classesStudiedBy[msg.sender].push(i);\r\n    }\r\n\r\n    function addRating(uint256 i, uint256 r) public {\r\n      assert(i <= classes.length);\r\n      assert(hasPurchasedClass(i));\r\n      assert(!hasRatedClass(i));\r\n      assert(i <= 5);\r\n\r\n      classes[i].rating + r/classes[i].raters.length + 1;\r\n      classes[i].raters.push(msg.sender);\r\n    }\r\n  }\r\n",
  "sourcePath": "C:/Users/sabri/OneDrive/Documents/Vibe/contracts/Vibe.sol",
  "compiler": {
    "name": "solc",
    "version": "0.5.16+commit.9c3226ce.Emscripten.clang"
  },
  "schemaVersion": "3.2.4",
  "updatedAt": "2021-03-05T23:21:15.621Z",
  "devdoc": {
    "methods": {}
  },
  "userdoc": {
    "methods": {}
  }
}